:020000040000FA
:04000000FEEFFFF020
:10FBDC0000000000000000002F00000007000700DC
:10FBEC00147F147F14242A7F2A122313086462368C
:10FBFC00495522500005030000001C224100004121
:10FC0C00221C0014083E081408083E08080000A036
:10FC1C006000080808080800606000002010080454
:10FC2C00023E5149453E00427F40004261514946E7
:10FC3C002141454B311814127F1027454545393C5D
:10FC4C004A49493001710905033649494936064983
:10FC5C0049291E00363600000056360000081422D2
:10FC6C004100141414141400412214080201510907
:10FC7C0006324959513E7C1211127C7F4949493652
:10FC8C003E414141227F4141221C7F494949417FEC
:10FC9C00090909013E4149497A7F0808087F00415A
:10FCAC007F41002040413F017F081422417F4040AA
:10FCBC0040407F020C027F7F0408107F3E4141418F
:10FCCC003E7F090909063E4151215E7F09192946EB
:10FCDC00464949493101017F01013F4040403F1FE6
:10FCEC002040201F3F4038403F631408146307082E
:10FCFC007008076151494543007F41410055AA55A1
:10FD0C00AA550041417F00040201020440404040DA
:10FD1C0040000305000020545454787F4844443874
:10FD2C003844444420384444487F385454541808C8
:10FD3C007E09010218A4A4A47C7F08040478004462
:10FD4C007D40004080847D007F1028440000417F6E
:10FD5C0040007C041804787C08040478384444443B
:10FD6C0038FC2424241818242418FC7C08040408C7
:10FD7C004854545420043F4440203C4040207C1CB8
:10FD8C002040201C3C4030403C44281028441CA0FF
:10FD9C00A0A07C4464544C4400107C82000000FF02
:10FDAC00000000827C10000006090906809A45417B
:10FDBC008E418F804545454949498E8F9092924F8F
:10FDCC00994F555559999A9B9C9D9E9F41494F55CA
:10FDDC00A5A5A6A7A8A9AAABACADAEAFB0B1B2B35E
:10FDEC00B4B5B6B7B8B9BABBBCBDBEBFC0C1C2C34F
:10FDFC00C4C5C6C7C8C9CACBCCCDCECFD0D1D2D33F
:10FE0C00D4D5D6D7D8D9DADBDCDDDEDFE0E1E2E32E
:10FE1C00E4E5E6E7E8E9EAEBECEDEEEFF0F1F2F31E
:10FE2C00F4F5F6F7F8F9FAFBFCFDFEFF009500007F
:10FE3C0001F900000887040009AF00010A1B00014A
:10FE4C000CC301000DAF020010FF000011FF0001F8
:10FE5C0012FF000118FF000119FF000120FF000034
:10FE6C0021FF000026DF0100377300003A25040053
:10FE7C003B25000029FF040017FF0000C2A701B2B8
:10FE8C00A70152A601FE9E01000000000000000028
:10FE9C0000000000000000000000C2A701BAA7018A
:10FEAC0052A601FE9E0100000000000000000000B0
:10FEBC0000000000000000000220004F00022000A3
:10FECC004F0002200003000001020304050607088E
:10FEDC0009222A2B2C3A3B3C3D3E3F5B5D7C7F004C
:10FEEC00446563696D616C2052616E67650020200A
:10FEFC0020202020202020202020005472616E73AE
:10FF0C006D697373696F6E0055206368617261630C
:10FF1C007465727300506C656173652073656E64F3
:10FF2C0000436F6E73656375746976650045727214
:10FF3C006F7220436865636B005344204C6F676796
:10FF4C00696E6700436F6E74696E756F75730041EF
:10FF5C0075746F6D617469630042617564207261C0
:10FF6C00746500436F6D706C6574650053657474D3
:10FF7C00696E6773004C4F472E54585400436F6D95
:10FF8C006D616E64004D696E696D756D004D6178C3
:10FF9C00696D756D0057697468206100506C6561FE
:10FFAC007365004C656E6774680053797374656D86
:10FFBC0000437573746F6D0054687265650045720B
:10FFCC00726F720053746172740046415433320084
:10FFDC005541525400426175640052617465004D84
:10FFEC0061696E004D656E750046415400303A00F3
:04FFFC002564000078
:020000040001F9
:100000006000FFF1D9FF600003F2DAFF000EDE6E40
:10001000000EDD6E7DC001F07EC002F03CECBAF057
:1000200001C0AAF002C0ABF00001ABBF1CEF80F032
:100030001AEF80F01FEF80F00B0EA6EF86F0D8903D
:10004000AA35D96EAB35DA6E390ED926010EDA2211
:100050006F0078FFC2F06F0074FFC3F0C251C3118C
:10006000D8A435EF80F037EF80F03AEF80F00C0E37
:10007000A6EF86F06000FFF1D9FF600003F2DAFF1F
:1000800060000BF3DEFF60000FF3DDFF8191600085
:100090000BF3D9FF60000FF3DAFFDF50D8B453EF52
:1000A00080F055EF80F07CEF80F020EE01F0C2513F
:1000B000D926C351DA22DF500DECCDF00001B26F2A
:1000C000B2B165EF80F067EF80F07CEF80F0815196
:1000D000D8B46DEF80F06FEF80F079EF80F0B2A5CB
:1000E00074EF80F076EF80F079EF80F00A0EA6EFE3
:1000F00086F0000EA6EF86F060000BF3D9FF6000DB
:100100000FF3DAFF000EDF6E20EE01F0C251D926A8
:10011000C351DA226000ABF2DFFF20EE01F0C251E2
:10012000D926C351DA22DF50C8ECD0F00001B26FFB
:10013000B2A19DEF80F09FEF80F0A2EF80F0030E60
:10014000A6EF86F08151D8B4A8EF80F0AAEF80F036
:10015000B3EF80F0B2A5AFEF80F0B1EF80F0B3EF76
:1001600080F076EF80F0000EBB6F000EBC6F000ECB
:10017000BD6F000EBE6FC2C076F0C3C077F0BBC0CB
:1001800078F0BCC079F0BDC07AF0BEC07BF061EC05
:10019000BCF00001C16F020EC119D8B4D2EF80F0DB
:1001A000D4EF80F0D6EF80F0B2EF81F0000EC06F98
:1001B000000EBF6FC05109E1040EBF5DD8A0E3EF90
:1001C00080F0E5EF80F0E7EF80F04BEF81F0BFC00B
:1001D00082F0C0C083F0823B833BF00E83178251D4
:1001E0000F0B8313F00E8217C2C084F0C3C085F0DA
:1001F0008251842783518523F10E8425A46F010E3B
:100200008521A56F20EE04F0A451D926A551DA224C
:10021000DF50D8A40EEF81F010EF81F01AEF81F0DB
:10022000000E9A6F000E9B6F000E9C6F000E9D6F6C
:100230002AEF81F0080EA425016E000EA521026EA2
:10024000F6ECC8F001C09AF002C09BF003C09CF02D
:1002500004C09DF08A0E0001826F000E836FD8905B
:10026000BF35D96EC035DA6ED890D936DA368251BC
:10027000D9268351DA2260006BF2DEFF60006FF254
:10028000DEFF600073F2DEFF600077F2DEFFBF4B3F
:10029000C02BDAEF80F0000EC06F000EBF6FBF51B1
:1002A000C011D8B456EF81F058EF81F05BEF81F0C8
:1002B000BF07D8A0C0078A0E826F000E836FD89048
:1002C000BF35D96EC035DA6ED890D936DA3682515C
:1002D000D9268351DA226F0078FFBBF06F0078FFD8
:1002E000BCF06F0078FFBDF06F0078FFBEF0BB512F
:1002F000BC11BD11BE11D8A480EF81F082EF81F056
:1003000088EF81F0000E9F6F030E9E6F9BEF81F0D0
:10031000C2C076F0C3C077F0BBC078F0BCC079F043
:10032000BDC07AF0BEC07BF061ECBCF00001826F12
:1003300082519E6F9F6B9EC0C1F0010EC165A3EFFD
:1003400081F0A5EF81F0B2EF81F0BF4BC02BC0511F
:1003500009E1040EBF5DD8A0B0EF81F0B2EF81F0EB
:100360005BEF81F0040EC119D8A4B9EF81F0BBEFA7
:1003700081F0BEEF81F0010EA6EF86F0010EC1659F
:10038000C4EF81F0C6EF81F0C9EF81F00D0EA6EF4A
:1003900086F03E0EC225016E000EC321026E5FEC98
:1003A000D2F0020E02180110D8B4D9EF81F0DBEFC1
:1003B00081F0DDEF81F0C6EF81F0490E0001C2252A
:1003C000016E000EC321026E5FECD2F001C0B7F0E7
:1003D00002C0B8F00001B96BBA6BB751B811B911CE
:1003E000BA11D8A4F6EF81F0F8EF81F008EF82F0AF
:1003F000570EC225016E000EC321026EF6ECC8F046
:1004000001C0B7F002C0B8F003C0B9F004C0BAF040
:10041000000120EE1BF0C251D926C351DA22600040
:10042000DFF2DEFF6000E3F2DEFF6000E7F2DEFFF6
:100430006000EBF2DEFF20EE43F0C251D926C3513B
:10044000DA2210EE02F0C251E126C351E2226F001F
:100450007FFFE7FF20EE02F0C251D926C351DA2216
:10046000DE04D8B436EF82F038EF82F049EF82F044
:1004700020EE02F0C251D926C351DA22020EDE1854
:10048000D8B445EF82F047EF82F049EF82F0C6EF33
:1004900081F0B7C001F0B8C002F0B9C003F0BAC033
:1004A00004F020EE02F0C251D926C351DA22DF5007
:1004B000826F8251056E066A076A086AE3ECCEF025
:1004C00001C0B7F002C0B8F003C0B9F004C0BAF080
:1004D000000120EE40F0C251D926C351DA22DF508C
:1004E000826F836B20EE09F0C251D926C351DA2204
:1004F00060000BF2DEFF60000FF2DDFF20EE09F07E
:10050000C251D926C351DA22DE50DE10D8B48BEFA7
:1005100082F08DEF82F0C6EF81F020EE09F0C2513B
:10052000D926C351DA226F0078FF82F06F0074FF82
:1005300083F0FF0E846FFF0E856F20EE09F0C2512D
:10054000D926C351DA226F0078FF86F06F0074FF5E
:1005500087F08451862785518723825186178351DE
:10056000871786518711D8B4B8EF82F0BAEF82F0BE
:10057000BCEF82F0C6EF81F0440EC225016E000E82
:10058000C321026E5FECD2F0000120EE07F0C251F1
:10059000D926C351DA22600007F0DEFF60000BF0BD
:1005A000DDFF20EE07F0C251D926C351DA226F00D9
:1005B00078FF82F06F0074FF83F00F0E8217000E39
:1005C000831782518311D8B4E8EF82F0EAEF82F00A
:1005D000ECEF82F0C6EF81F0460EC225016E000EF0
:1005E000C321026E5FECD2F001C0AEF002C0AFF0EA
:1005F0000001B06BB16BAE51AF11B011B111D8A405
:1006000004EF83F006EF83F016EF83F0530EC2255C
:10061000016E000EC321026EF6ECC8F001C0AEF010
:1006200002C0AFF003C0B0F004C0B1F0410E000151
:10063000C225016E000EC321026E5FECD2F001C034
:10064000ACF002C0ADF00001AC51AD11D8A42BEF5D
:1006500083F02DEF83F02FEF83F0C6EF81F020EED3
:1006600007F0C251D926C351DA226F0078FF82F019
:100670006F0074FF83F0040E846FD890833382334D
:10068000842F3DEF83F0AC518225856FAD518321DE
:10069000866F876BD8B0872B886BB7518525A66F7F
:1006A000B8518621A76FB9518721A86FBA51882107
:1006B000A96FA651AE5DA751AF59A851B059A95124
:1006C000B159D8B066EF83F068EF83F06AEF83F03A
:1006D000C6EF81F0A651AE5D016EA751AF59026E13
:1006E000A851B059036EA951B159046E20EE09F01A
:1006F000C251D926C351DA226F0078FF82F06F0011
:1007000074FF83F082C005F083C006F0076A086AB0
:10071000FCECC9F001C0B3F002C0B4F003C0B5F006
:1007200004C0B6F00001B351B411B511B611D8A48C
:100730009CEF83F09EEF83F0A0EF83F0C6EF81F093
:10074000000EC16FF60EB35DFF0EB459FF0EB55922
:100750000F0EB659D8B0AFEF83F0B1EF83F0B3EF1F
:1007600083F0030EC16FB651B51109E1F60EB35D0A
:10077000FF0EB459D8B0BFEF83F0C1EF83F0C3EFE1
:1007800083F0020EC16FB651B51109E1F60EB35DEB
:100790000F0EB459D8B0CFEF83F0D1EF83F0D3EF81
:1007A00083F0010EC16FC151D8A4D9EF83F0DBEF04
:1007B00083F0DDEF83F0C6EF81F0020EB325826F88
:1007C000000EB421836F000EB521846F000EB62198
:1007D000856F20EE17F0C251D926C351DA2260008E
:1007E0000BF2DEFF60000FF2DEFF600013F2DEFFAF
:1007F000600017F2DEFF20EE1FF0C251D926C35170
:10080000DA226000EFF2DEFF6000F3F2DEFF60004C
:10081000F7F2DEFF6000FBF2DEFFAC51BB25826F1A
:10082000AD51BC21836F000EBD21846F000EBE212F
:10083000856F20EE23F0C251D926C351DA22600021
:100840000BF2DEFF60000FF2DEFF600013F2DEFF4E
:10085000600017F2DEFFA651BB25826FA751BC21B5
:10086000836FA851BD21846FA951BE21856F20EEF1
:100870002BF0C251D926C351DA2260000BF2DEFF01
:1008800060000FF2DEFF600013F2DEFF600017F27F
:10089000DEFF030EC119D8A450EF84F052EF84F0AC
:1008A000B7EF84F05D0EC225016E000EC321026E0B
:1008B0005FECD2F001500210D8B461EF84F063EF26
:1008C00084F065EF84F0C6EF81F0000120EE07F0C0
:1008D000C251D926C351DA22DE50DE10D8B473EFEC
:1008E00084F075EF84F077EF84F0C6EF81F05F0E4F
:1008F000C225016E000EC321026EF6ECC8F00001A5
:1009000020EE27F0C251D926C351DA22600007F049
:10091000DEFF60000BF0DEFF60000FF0DEFF600026
:1009200013F0DEFF20EE17F0C251D926C351DA22B0
:100930006F0078FF82F06F0078FF83F06F0078FF20
:1009400084F06F0078FF85F0020ED89082378337ED
:1009500084378537E82EA5EF84F082C0A0F083C0ED
:10096000A1F084C0A2F085C0A3F06AEF85F020EE6C
:1009700007F0C251D926C351DA22DE50DE10D8A4C6
:10098000C4EF84F0C6EF84F0C8EF84F0C6EF81F0C6
:1009900020EE23F0C251D926C351DA226F0078FF2E
:1009A00082F06F0078FF83F06F0078FF84F06F00B3
:1009B00078FF85F0B7518225866FB8518321876F04
:1009C000B9518421886FBA518521896F20EE27F0B3
:1009D000C251D926C351DA2260001BF2DEFF60004B
:1009E0001FF2DEFF600023F2DEFF600027F2DEFF71
:1009F000020EC119D8B4FFEF84F001EF85F04FEF7C
:100A000085F020EE17F0C251D926C351DA226F00CB
:100A100078FF82F06F0078FF83F06F0078FF84F03A
:100A20006F0078FF85F0010E8215866F000E83152A
:100A3000876F000E8415886F000E8515896F20EE74
:100A400017F0C251D926C351DA226F0078FF01F0A6
:100A50006F0078FF02F06F0078FF03F06F0078FFFF
:100A600004F0030E056E000E066E000E076E000EFB
:100A7000086EE3ECCEF0D890043203320232013239
:100A8000000186510124A06F87510220A16F885177
:100A90000320A26F89510420A36F6AEF85F020EE36
:100AA00017F0C251D926C351DA226F0078FF82F0C5
:100AB0006F0078FF83F06F0078FF84F06F0078FF9D
:100AC00085F0D8908235A06F8335A16F8435A26FF1
:100AD0008535A36FFF0EA025826F010EA121836FC4
:100AE000000EA221846F000EA321856F0A0E7EEFF7
:100AF00085F0D8908533843383338233E82E79EFC1
:100B000085F020EE1BF0C251D926C351DA22825162
:100B1000DE5C8351DE588451DE588551DE58D8B0F2
:100B200094EF85F096EF85F098EF85F0C6EF81F0B1
:100B300020EE0FF0C251D926C351DA22FF0EDE6E2D
:100B4000FF0EDE6EFF0EDE6EFF0EDD6EDD52DD523D
:100B500010EE0BF0C251E126C351E2226F007BFF81
:100B6000E6FF6F007BFFE6FF6F007BFFE6FF6F0095
:100B70007BFFE6FF20EE04F0C251D926C351DA22F2
:100B8000800EDF6E030EC119D8A4C9EF85F0CBEF3C
:100B900085F081EF86F0630EC225016E000EC32141
:100BA000026E5FECD2F001040210D8A4DAEF85F0F7
:100BB000DCEF85F081EF86F0C2C070F0C3C071F049
:100BC000010E0001BB25726F000EBC21736F000E79
:100BD000BD21746F000EBE21756FFCECC6F00009DC
:100BE000D8A4F5EF85F0F7EF85F081EF86F00001EE
:100BF00020EE04F0C251D926C351DA22000EDF6E76
:100C0000310EC225016E020EC321026E5FECD2F0DE
:100C1000550E011807E1AA0E0218D8A412EF86F0AB
:100C200014EF86F081EF86F0330E0001C225016ECD
:100C3000000EC321026EF6ECC8F0520E01180DE151
:100C4000520E02180AE1610E031807E1410E041862
:100C5000D8A42DEF86F02FEF86F081EF86F0170EE7
:100C60000001C225016E020EC321026EF6ECC8F02F
:100C7000720E01180DE1720E02180AE1410E0318FE
:100C800007E1610E0418D8A448EF86F04AEF86F019
:100C900081EF86F01B0E0001C225016E020EC321FA
:100CA000026EF6ECC8F0000120EE0FF0C251D9261A
:100CB000C351DA22600007F0DEFF60000BF0DEFFB8
:100CC00060000FF0DEFF600013F0DEFF1F0EC22594
:100CD000016E020EC321026EF6ECC8F0000120EE98
:100CE0000BF0C251D926C351DA22600007F0DEFFB3
:100CF00060000BF0DEFF60000FF0DEFF600013F01D
:100D0000DEFF60000BF3D9FF60000FF3DAFF600035
:100D100007F3DFFF0101374B382B000120EE05F010
:100D2000C251D926C351DA226000DFF4DEFF600031
:100D3000E3F4DDFF20EE13F0C251D926C351DA22CD
:100D4000DE6ADE6ADE6ADD6A79EF80F01200B6C024
:100D5000CDF0B7C0CEF06000EBF2D9FF6000EFF24B
:100D6000DAFF000EDE6E000EDD6EB4C005F0B5C019
:100D700006F0DD0E076E000E086E36ECC0F00001C6
:100D8000CC6FCC51D8A4C7EF86F0C9EF86F0C5EF81
:100D90008AF020EE0FF0B451D926B551DA22DF5097
:100DA000CC6FCC51D8B4D7EF86F0D9EF86F0DBEF1B
:100DB00086F0C5EF8AF020EE0EF0B451D926B55179
:100DC000DA22DFB2E6EF86F0E8EF86F0EAEF86F0AF
:100DD000C5EF8AF020EE10F0B451D926B551DA22D1
:100DE00010EE10F0B451E126B551E2226F0098FFE9
:100DF000C0F06F0098FFC1F06F0098FFC2F06F0065
:100E000098FFC3F0B851C025C46FB951C121C56F57
:100E1000000EC221C66F000EC321C76FDE50C45D35
:100E2000DE50C559DE50C659DE50C759D8B01BEF49
:100E300087F01DEF87F0B4EF8AF020EE10F0B45188
:100E4000D926B551DA226F0078FFBCF06F0074FF2D
:100E5000BDF0BC1DB86FBD1DB96FB4EF8AF020EEB8
:100E600010F0B451D926B551DA22FF0EDE14BC6F52
:100E7000010EDE14BD6F000EDE14BE6F000EDE1418
:100E8000BF6FBC51BD11BE11BF11D8A44AEF87F08E
:100E90004CEF87F0E2EF89F020EE10F0B451D92644
:100EA000B551DA226F0078FFBCF06F0078FFBDF01B
:100EB0006F0078FFBEF06F0078FFBFF00A0E66EF9C
:100EC00087F0D890BF33BE33BD33BC33E82E61EF1B
:100ED00087F0FF0EC06FFF0EC16F20EE09F0DD51ED
:100EE000D926DE51DA226F0078FFC2F06F0074FF5E
:100EF000C3F0C051C227C151C323BC51C215CF6F2B
:100F0000BD51C315D06FCF51D011D8A48AEF87F04F
:100F10008CEF87F062EF88F020EE10F0B451D92604
:100F2000B551DA22DE50DE10DE10DE10D8A49BEFC1
:100F300087F09DEF87F0D2EF87F020EE06F0B451F6
:100F4000D926B551DA226F0078FFD7F06F0078FF0D
:100F5000D8F06F0078FFD9F06F0078FFDAF0D75142
:100F6000D811D911DA11D8A4B8EF87F0BAEF87F009
:100F7000F2EF87F0B4C097F0B5C098F0000E996F0B
:100F8000000E9A6F000E9B6F000E9C6F09EC96F09E
:100F900097C0D7F098C0D8F099C0D9F09AC0DAF0CD
:100FA000F2EF87F0B4C097F0B5C098F020EE14F0DF
:100FB000B451D926B551DA226F0078FF99F06F004D
:100FC00078FF9AF06F0078FF9BF06F0078FF9CF03D
:100FD00009EC96F097C0D7F098C0D8F099C0D9F036
:100FE0009AC0DAF00001D751D811D911DA11D8A47A
:100FF000FCEF87F0FEEF87F000EF88F0BDEF8AF09E
:10100000D705D811D911DA11D8A409EF88F00BEF60
:1010100088F015EF88F020EE0FF0B451D926B551C5
:10102000DA22020EDF6EC5EF8AF0D7290AE1D8294D
:1010300008E1D92906E1DA29D8A421EF88F023EFC5
:1010400088F02DEF88F020EE0FF0B451D926B5517D
:10105000DA22010EDF6EC5EF8AF020EE14F0B451F3
:10106000D926B551DA2260005FF3DEFF600063F33A
:10107000DEFF600067F3DEFF60006BF3DEFF20EE53
:1010800006F0B451D926B551DA22DE50DE10DE105A
:10109000DE10D8A44EEF88F050EF88F062EF88F0B1
:1010A00020EE06F0B451D926B551DA2260005FF384
:1010B000DEFF600063F3DEFF600067F3DEFF6000C9
:1010C0006BF3DEFF20EE0EF0B451D926B551DA22D3
:1010D000DFAE6DEF88F06FEF88F0B0EF88F0220E92
:1010E000B4254C6E000EB5214D6E20EE18F0B451B3
:1010F000D926B551DA226F0078FF4EF06F0078FFE5
:101100004FF06F0078FF50F06F0078FF51F0000E45
:10111000536E010E526E20EE01F0DD51D926DE51E4
:10112000DA22DF5000ECCEF00009D8B49AEF88F054
:101130009CEF88F0A7EF88F0000120EE0FF0B4518B
:10114000D926B551DA22010EDF6EC5EF8AF0000113
:1011500020EE0EF0B451D926B551DA227F0EDF16FB
:10116000DDC00DF0DEC00EF020EE14F0B451D92633
:10117000B551DA226F0078FF0FF06F0078FF10F0A2
:101180006F0078FF11F06F0078FF12F0E3ECC4F00D
:101190000DC0D3F00EC0D4F00FC0D5F010C0D6F003
:1011A0000001D351D411D511D611D8A4DAEF88F0AB
:1011B000DCEF88F0E6EF88F020EE0FF0B451D9268E
:1011C000B551DA22020EDF6EC5EF8AF0CF51D32778
:1011D000D051D423000ED523000ED623B8C0BCF0C6
:1011E000B9C0BDF0090EBE6FD890BD33BC33BE2F61
:1011F000F4EF88F0BCC0D1F0BDC0D2F0D151D21113
:10120000D8B405EF89F007EF89F06EEF89F0D1517E
:10121000CF25BC6FD251D021BD6F20EE09F0DD513A
:10122000D926DE51DA22BC51DE5CBD51DE58D8B081
:101230001CEF89F01EEF89F030EF89F020EE09F005
:10124000DD51D926DE51DA226F0078FFBCF06F0045
:1012500074FFBDF0CF51BC5DD16FD051BD59D26F7D
:10126000CDC04CF0CEC04DF0D3C04EF0D4C04FF046
:10127000D5C050F0D6C051F0D1C052F0D2C053F01A
:1012800020EE01F0DD51D926DE51DA22DF5000ECEC
:10129000CEF00009D8B44FEF89F051EF89F05CEF40
:1012A00089F0000120EE0FF0B451D926B551DA22B1
:1012B000010EDF6EC5EF8AF0D1C0BCF0D2C0BDF028
:1012C000090ED8900001BC37BD37E82E61EF89F0D8
:1012D000BCC0DBF0BDC0DCF042EF8AF020EE18F0BD
:1012E000B451D926B551DA22D351DE180FE1D451C9
:1012F000DE180CE1D551DE1809E1D651DE18D8B45C
:1013000084EF89F086EF89F0CFEF89F020EE0AF0C4
:10131000B451D926B551DA2210EE10F0B451E126BD
:10132000B551E222DE50E65CDE50E658DE50E6586B
:10133000DE50E658D8B09FEF89F0A1EF89F0CFEFEB
:1013400089F0220EB425496E000EB5214A6ED3C035
:101350004BF0D4C04CF0D5C04DF0D6C04EF0000ECE
:10136000506E010E4F6E20EE01F0DD51D926DE5198
:10137000DA22DF503AECCEF00009D8B4C2EF89F09F
:10138000C4EF89F0CFEF89F0000120EE0FF0B451E7
:10139000D926B551DA22010EDF6EC5EF8AF00001C1
:1013A00020EE18F0B451D926B551DA2260004FF37F
:1013B000DEFF600053F3DEFF600057F3DEFF6000E6
:1013C0005BF3DEFFFF0EBC6F010EBD6F20EE10F071
:1013D000B451D926B551DA226F0078FFBEF06F0004
:1013E00074FFBFF0BC51BE17BD51BF17BE510008FE
:1013F000DB6FBF51D8A0E82A0208DC6FDB51B85D73
:10140000DC51B959D8B007EF8AF009EF8AF00DEF37
:101410008AF0B8C0DBF0B9C0DCF0FF0EBC6F010E83
:10142000BD6F20EE10F0B451D926B551DA226F000D
:1014300078FFBEF06F0074FFBFF0BC51BE17BD5106
:10144000BF17B4C0C0F0B5C0C1F0BE51C027BF5176
:10145000C123220EC025016E000EC121026ECDC037
:1014600003F0CEC004F0DBC005F0DCC006F0B1EC48
:10147000CFF0000120EE0EF0B451D926B551DA229A
:10148000000EDB8EDB51B85FDC51B95B6000EBF224
:10149000D9FF6000EFF2DAFFDB51DE26DC51DD22FE
:1014A000DB51CD27DC51CE2320EE10F0B451D926EC
:1014B000B551DA22DB51DE26DC51DE22000EDE22BF
:1014C000DE2220EE10F0B451D926B551DA2210EE0A
:1014D0000AF0B451E126B551E222DE50E65CDE505E
:1014E000E658DE50E658DE50E658D8A07AEF8AF08B
:1014F0007CEF8AF090EF8AF020EE0AF0B451D92602
:10150000B551DA226F0078FFC8F06F0078FFC9F09C
:101510006F0078FFCAF06F0078FFCBF0A2EF8AF07F
:1015200020EE10F0B451D926B551DA226F0078FFC1
:10153000C8F06F0078FFC9F06F0078FFCAF06F0045
:1015400078FFCBF020EE0AF0B451D926B551DA225B
:10155000600023F3DEFF600027F3DEFF60002BF363
:10156000DEFF60002FF3DEFFB851B911D8A4BBEF46
:101570008AF0BDEF8AF02FEF87F020EE0EF0B45125
:10158000D926B551DA22000EDB8C12000001E85199
:10159000E911D8A4CEEF8AF0D0EF8AF0D3EF8AF029
:1015A000090EDAEF8EF03F0EEC17EA0E7D6F000E9B
:1015B0007E6F9C0E7F6F010E806FECC081F000EC9F
:1015C00080F001019E6F9E51D8A4E9EF8AF0EBEF05
:1015D0008AF0C6EF8EF09CC19FF19DC1A0F19F0ED5
:1015E0000001DA6F010EDB6FEAC0DCF0EBC0DDF06A
:1015F00094ECAEF001019E6F9E51D8A402EF8BF0E7
:1016000004EF8BF00DEF8BF0C6AF09EF8BF00BEF13
:101610008BF00DEF8BF0060E9E6FECC0EDF01C0E04
:101620000001ED17D8B417EF8BF019EF8BF032EF04
:101630008CF001019E51D8B420EF8BF022EF8BF09B
:1016400038EF8BF0040E9E19D8A429EF8BF02BEF06
:101650008BF034EF8BF09F0E0001DE6F010EDF6F19
:101660004FECC1F001019E6F0001EC8753EF8BF04E
:10167000A3C1EDF0110E0001ED17D8B442EF8BF0CD
:1016800044EF8BF049EF8BF0070E01019E6F53EF93
:101690008BF0ECA54EEF8BF050EF8BF053EF8BF00F
:1016A000080E01019E6F01019E51D8A45AEF8BF0E4
:1016B0005CEF8BF058EF8CF00001ECA762EF8BF041
:1016C00064EF8BF058EF8CF09CC108F09DC109F0DD
:1016D000B9C10AF0BAC10BF089ECCCF008C090F1A6
:1016E00009C091F10AC092F10BC093F10E0E0101F5
:1016F000B925016E000EBA21026E000E036E000EB7
:10170000046E690E056E520E066ECBECCCF0010134
:1017100020EE0BF0B951D926BA51DA22200EDF6E35
:101720009CC105F09DC106F0B9C107F0BAC108F02F
:10173000000E096E000E0A6E000E0B6E000E0C6E8F
:1017400044ECD1F01C0E0101B925016E000EBA2146
:10175000026E000E036E000E046E000E056E000E8B
:10176000066ECBECCCF0010120EE03F09C51D926A3
:101770009D51DA22010EDF6E905191119211931159
:10178000D8B4C5EF8BF0C7EF8BF058EF8CF020EE9C
:101790002FF09C51D9269D51DA226F0078FF82F1FB
:1017A0006F0078FF83F16F0078FF84F16F0078FF9E
:1017B00085F19F0E0001976F010E986F90C199F00F
:1017C00091C19AF092C19BF093C19CF0000E9D6F65
:1017D000000E9E6F000E9F6F000EA06FF1ECAFF039
:1017E00001019E6F9E51D8A4F8EF8BF0FAEF8BF0B9
:1017F00058EF8CF09CC170F09DC171F082C172F005
:1018000083C173F084C174F085C175F0FCECC6F03F
:1018100001019E6FFF0E90250001ED6FFF0E01018B
:1018200091210001EE6FFF0E010192210001EF6F87
:10183000FF0E010193210001F06F010120EE0BF07A
:101840009C51D9269D51DA226000B7F3DEFF60007B
:10185000BBF3DEFF6000BFF3DEFF6000C3F3DEFF1B
:1018600058EF8CF001019E51D8A439EF8CF03BEF7A
:101870008CF058EF8CF0A3A940EF8CF042EF8CF085
:1018800046EF8CF0040E9E6F58EF8CF00001ECA335
:101890004CEF8CF04EEF8CF058EF8CF00101A3A1CF
:1018A00054EF8CF056EF8CF058EF8CF0070E9E6FD3
:1018B00001019E51D8A45FEF8CF061EF8CF090EFA6
:1018C0008CF00001ECA767EF8CF069EF8CF06AEF09
:1018D0008CF0EC8D010120EE2FF09C51D9269D510A
:1018E000DA22000110EE1CF0E851E126E951E22273
:1018F0006F007BFFE6FF6F007BFFE6FF6F007BFF63
:10190000E6FF6F007BFFE6FF20EE20F0E851D926CE
:10191000E951DA226000E7F6DEFF6000EBF6DDFF5A
:1019200001019E51D8A497EF8CF099EF8CF0C6EF8F
:101930008EF09CC108F09DC109F0B9C10AF0BAC18E
:101940000BF089ECCCF0000120EE06F0E851D9262E
:10195000E951DA22600023F0DEFF600027F0DEFFAD
:1019600060002BF0DEFF60002FF0DEFF1C0E010197
:10197000B925016E000EBA21026EF6ECC8F0000126
:1019800020EE0AF0E851D926E951DA22600007F08A
:10199000DEFF60000BF0DEFF60000FF0DEFF600096
:1019A00013F0DEFF6000A3F3D9FF6000A7F3DAFFB6
:1019B000600073F6DEFF600077F6DDFF010120EEC8
:1019C00005F09C51D9269D51DA22000110EE02F05B
:1019D000E851E126E951E2226F007BFFE6FF6F004C
:1019E00077FFE5FF20EE0EF0E851D926E951DA2223
:1019F0006000B3F3DFFF20EE0FF0E851D926E95184
:101A0000DA22000EDF6E20EE18F0E851D926E951F7
:101A1000DA22DE6ADE6ADE6ADD6A20EE10F0E85164
:101A2000D926E951DA22DE6ADE6ADE6ADD6A220E32
:101A3000E825016E000EE921026E000E046E000E14
:101A4000036E020E066E000E056E7DECD2F00001F4
:101A5000ECAB2DEF8DF02FEF8DF0C6EF8EF020EE7A
:101A60000AF0E851D926E951DA22DE50DE10DE1004
:101A7000DE10D8B43EEF8DF040EF8DF0C6EF8EF063
:101A800020EE0AF0E851D926E951DA2210EE10F0E2
:101A9000E851E126E951E2226F007BFFE6FF6F008B
:101AA0007BFFE6FF6F007BFFE6FF6F007BFFE6FF3B
:101AB000010120EE09F09C51D9269D51DA226F00D8
:101AC00078FFEDF06F0074FFEEF00001ED51EF6F65
:101AD000EE51F06FF16BF26B090ED890EF37F037E3
:101AE000F137F237E82E6DEF8DF0EFC08CF1F0C0DA
:101AF0008DF1F1C08EF1F2C08FF120EE06F0E851C9
:101B0000D926E951DA226F0078FF98F16F0078FF4B
:101B100099F16F0078FF9AF16F0078FF9BF120EE4A
:101B20000AF0E851D926E951DA226F0078FF94F1E2
:101B30006F0078FF95F16F0078FF96F16F0078FFE6
:101B400097F1E1EF8DF0E8C076F0E9C077F098C149
:101B500078F099C179F09AC17AF09BC17BF038ECAA
:101B6000A5F076C098F177C099F178C09AF179C064
:101B70009BF101019B519A11991107E1020E985DA9
:101B8000D8B0C5EF8DF0C7EF8DF0C9EF8DF0020E24
:101B90009E6F98290AE1992908E19A2906E19B2973
:101BA000D8A4D5EF8DF0D7EF8DF0D9EF8DF0010EE1
:101BB0009E6F8C51945F8D51955B8E51965B8F51CA
:101BC000975B01019E51D8A4E8EF8DF0EAEF8DF00C
:101BD000F9EF8DF094518C5D95518D5996518E5938
:101BE00097518F59D8A0F7EF8DF0F9EF8DF0A3EF53
:101BF0008DF0000120EE14F0E851D926E951DA22E7
:101C0000600063F6DEFF600067F6DEFF60006BF6E3
:101C1000DEFF60006FF6DEFF01019E51D8A413EFD6
:101C20008EF015EF8EF0C6EF8EF0FF0E94150001CA
:101C3000ED6F010E010195150001EE6F000E01011F
:101C400096150001EF6F000E010197150001F06F6E
:101C5000ED51EE11EF11F011D8B431EF8EF033EFFA
:101C60008EF0C6EF8EF09CC10DF09DC10EF098C1B4
:101C70000FF099C110F09AC111F09BC112F0E3EC82
:101C8000C4F00DC086F10EC087F10FC088F110C0FE
:101C900089F101018651871188118911D8A453EF68
:101CA0008EF055EF8EF059EF8EF0020E9E6FC6EF5C
:101CB0008EF094C1EDF095C1EEF096C1EFF097C1B2
:101CC000F0F00A0E6AEF8EF00001D890F033EF3397
:101CD000EE33ED33E82E64EF8EF001018651000102
:101CE000ED25F16F010187510001EE21F26F010135
:101CF00088510001EF21F36F010189510001F021AA
:101D0000F46F20EE18F0E851D926E951DA2260008C
:101D1000C7F3DEFF6000CBF3DEFF6000CFF3DEFF32
:101D20006000D3F3DEFF220EE825496E000EE921A4
:101D30004A6E20EE18F0E851D926E951DA226F00F8
:101D400078FF4BF06F0078FF4CF06F0078FF4DF09C
:101D50006F0078FF4EF0000E506E010E4F6E0101C5
:101D600020EE01F09C51D9269D51DA22DF503AEC49
:101D7000CEF00009D8B4BFEF8EF0C1EF8EF0C6EF01
:101D80008EF0010E01019E6FC6EF8EF001019E5193
:101D9000D8B4CDEF8EF0CFEF8EF0D9EF8EF060009B
:101DA000A3F3D9FF6000A7F3DAFF000EDE6E000E8A
:101DB000DD6E9E511200000E0101D66F000ED36F32
:101DC000000ED76F000ED86F000ED96F000EDA6FBD
:101DD000000EDB6FBA8AA90EF66EFE0EF76E000ECD
:101DE000F86E02D801EF8FF00500FA6E0900F55089
:101DF000FD6E0900F550FE6E0900F550FF6EFA50B9
:101E000012000009D8A407EF8FF009EF8FF00CEF54
:101E10008FF0000EB9EF92F01E0EE2ECCFF0000E44
:101E2000536E640E526EBA8A8E0EF66EFE0EF76E0A
:101E3000000EF86E02D82BEF8FF00500FA6E090045
:101E4000F550FD6E0900F550FE6E0900F550FF6E6D
:101E5000FA50FF0E1200BA9A5206D8A05306000E8E
:101E60000C6E000E0D6E000E0E6E000E0F6E000E4C
:101E7000BBECA0F020EE4DF0040E6F00AFFFDBFFD7
:101E8000E806FBE24D04D8B448EF8FF04AEF8FF03C
:101E900053EF8FF052505310D8A451EF8FF053EFFF
:101EA0008FF013EF8FF052505310D8A45AEF8FF0E9
:101EB0005CEF8FF0B7EF8FF0BA8A8E0EF66EFE0EE3
:101EC000F76E000EF86E02D874EF8FF00500FA6E10
:101ED0000900F550FD6E0900F550FE6E0900F55041
:101EE000FF6EFA50FF0E1200BA9A000E0C6E000E32
:101EF0000D6E000E0E6E000E0F6E050EBBECA0F008
:101F0000000E0C6E000E0D6E000E0E6E000E0F6EAB
:101F1000000EBBECA0F020EE4DF0040E6F00AFFF02
:101F2000DBFFE806FBE24D04D8B499EF8FF09BEF9E
:101F30008FF0B7EF8FF0020E0101D36FBA8A880ECF
:101F4000F66EFE0EF76E000EF86E02D8B5EF8FF04B
:101F50000500FA6E0900F550FD6E0900F550FE6EA1
:101F60000900F550FF6EFA50120009EF8FF0AA0E2B
:101F70000C6E010E0D6E000E0E6E000E0F6E020E38
:101F8000BBECA0F020EE4DF0040E6F00AFFFDBFFC6
:101F9000E806FBE220EE4EF0FF0EDE14226E0F0E7E
:101FA000DE14236E000EDE14246E000EDE14256E89
:101FB000AA0E221808E1230424102510D8A4E3EF68
:101FC0008FF0E5EF8FF060EF90F04DB4EAEF8FF017
:101FD000ECEF8FF060EF90F0000E0C6E000E0D6EC7
:101FE000000E0E6E000E0F6E100EBBECA0F0000E79
:101FF000536E000E526E000E0C6E000E0D6E000E33
:102000000E6E000E0F6E0F0EBBECA0F0000E0C6EED
:10201000000E0D6E000E0E6E400E0F6E120EBBEC1B
:10202000A0F020EE4DF0040E6F00AFFFDBFFE806DE
:10203000FBE24D50D8A41FEF90F021EF90F023EF7A
:1020400090F02FEF90F0524A532A522806E153287D
:10205000D8A42DEF90F02FEF90F0FBEF8FF05228E7
:1020600006E15328D8A437EF90F039EF90F03CEF19
:1020700090F0020E0101D36F000E0C6E000E0D6E7B
:10208000000E0E6E000E0F6E100EBBECA0F020EED8
:102090004DF0040E6F00AFFFDBFFE806FBE251AC32
:1020A00054EF90F056EF90F05BEF90F0010E0101CD
:1020B000DB6F9EEF90F0000E0101DB6F9EEF90F062
:1020C000010EE2ECCFF0BA9A000E0101DB6F1F0E99
:1020D000536E5268000E0C6E000E0D6E000E0E6EEA
:1020E000000E0F6E010EBBECA0F020EE4DF0040EC2
:1020F0006F00AFFFDBFFE806FBE25206D8A05306F5
:102100004D50D8B486EF90F088EF90F091EF90F0BA
:1021100052505310D8A48FEF90F091EF90F06AEFE7
:1021200090F052505310D8A498EF90F09AEF90F09E
:102130009EEF90F0020E0101D36FBA8ABA8A880E20
:10214000F66EFE0EF76E000EF86E02D8B5EF90F048
:102150000500FA6E0900F550FD6E0900F550FE6E9F
:102160000900F550FF6EFA5012008B0EF66EFE0E4F
:10217000F76E000EF86E02D8CBEF90F00500FA6E05
:102180000900F550FD6E0900F550FE6E0900F5508E
:10219000FF6EFA5012000009D8A4D1EF90F0D3EFEF
:1021A00090F0D5EF90F009EF8FF0BA9A000E536ED1
:1021B000140E526E000E0C6E000E0D6E000E0E6EA2
:1021C000000E0F6E030EBBECA0F020EE4DF0040EDF
:1021D0006F00AFFFDBFFE806FBE25206D8A0530614
:1021E0004D50D8B4F6EF90F0F8EF90F001EF91F089
:1021F00052505310D8A4FFEF90F001EF91F0DAEFB6
:1022000090F052505310D8A408EF91F00AEF91F0DB
:1022100026EF91F0020E0101D36FBA8A880EF66E96
:10222000FE0EF76E000EF86E02D824EF91F0050056
:10223000FA6E0900F550FD6E0900F550FE6E0900BA
:10224000F550FF6EFA50120009EF8FF0000E466E47
:10225000000E486E2D0E4624D96EDA6A000EDA2280
:102260008E0EF66EFE0EF76E000EF86E02D847EF79
:1022700091F00500FA6E0900F550FD6E0900F55069
:10228000FE6E0900F550FF6EFA50FF0E1200DF6E71
:10229000462A4850D8A44FEF91F051EF91F05CEFEF
:1022A00091F0FE0E2D18D8A458EF91F05AEF91F04E
:1022B0005CEF91F0000E466E482A130E486463EFFF
:1022C00091F065EF91F02AEF91F0020E0101D56FC8
:1022D000000ED46F2DC022F0C00E2216D8B473EFBA
:1022E00091F075EF91F0BBEF91F03550236E226ABB
:1022F00034C024F03F0E241624C025F0266A276A35
:10230000286A26C028F025C027F0266A256A2250B0
:102310002510296E235026102A6E000E27102B6ED2
:10232000000E28102C6E36502910496E2A504A6E25
:102330002B504B6E2C504C6E49C022F04AC023F0FB
:102340004BC024F04CC025F00A0ED890223623361C
:1023500024362536E82EA5EF91F0FF0E2224D76F04
:10236000030E2320D86F000E2420D96F000E2520E5
:10237000DA6F68EF92F03450236E226A33C024F093
:10238000256A266A276A25C027F024C026F0256A18
:10239000246A22502410286E23502510296E000E26
:1023A00026102A6E000E27102B6E35502810496E0D
:1023B00029504A6E2A504B6E2B504C6EC00E491657
:1023C000FF0E4A16030E4B16000E4C1649C022F0A3
:1023D0004AC023F04BC024F04CC025F0070EF6EFA6
:1023E00091F0D8902532243223322232E82EF1EFB8
:1023F00091F022C049F023C04AF024C04BF025C020
:102400004CF036C022F0030E2216236A37AE01D0FC
:10241000232A23302234456E32500F0B476E47C0BB
:1024200022F0F70E2226010E236E222A1AEF92F0D6
:10243000D8902336222E18EF92F02350476E010ECB
:102440004924016E000E4A20026E000E4B20036EDE
:10245000000E4C20046E45C022F0020E2226010E12
:10246000236E000E246E222A39EF92F0D890233684
:102470002436222E36EF92F023C005F024C006F059
:10248000076A086AE3ECCEF001C041F002C042F0F6
:1024900003C043F004C044F041C001F042C002F068
:1024A00043C003F044C004F04750056E066A076A53
:1024B000086AE3ECCEF0FF0E01240101D76FFF0E96
:1024C0000220D86FFF0E0320D96FFF0E0420DA6FB1
:1024D000000E0C6E000E0D6E000E0E6E000E0F6ED6
:1024E000110EBBECA0F0D4C10CF0D5C10DF00E6AFA
:1024F0000F6A070EBBECA0F0BA8A0101D351D8A431
:1025000084EF92F086EF92F0A1EF92F0010ED66F79
:10251000880EF66EFE0EF76E000EF86E02D89EEF75
:1025200092F00500FA6E0900F550FD6E0900F550B5
:10253000FE6E0900F550FF6EFA501200010EB9EF61
:1025400092F0880EF66EFE0EF76E000EF86E02D850
:10255000B7EF92F00500FA6E0900F550FD6E090024
:10256000F550FE6E0900F550FF6EFA50120009EFAB
:102570008FF01200DDEF95F0000E08EF96F0020EDE
:102580000101D66F020E346F000E336F60008BF0C6
:10259000D9FF60008FF0DAFF10EE00F10C0E6F0033
:1025A0006FFFE3FFE806FBE20551041108E10205B5
:1025B000020E0359D8B0DFEF92F0E1EF92F0E5EFB1
:1025C00092F00A0E3B6F39EF93F00B0E3B6F02C196
:1025D00024F003C125F004C126F005C127F00A0E3E
:1025E000F7EF92F0D8902732263225322432E82EA7
:1025F000F2EF92F024C02DF025C02EF026C02FF06F
:1026000027C030F02D502E102F103010D8A40BEF13
:1026100093F00DEF93F013EF93F0010E2D26000EC3
:102620002E222F223022000E0C6E000E0D6E000E98
:102630000E6E000E0F6E0F0EBBECA0F020EE28F019
:10264000040E6F00AFFFDBFFE806FBE22850D8A4C2
:102650002CEF93F02EEF93F039EF93F02DC00CF0A8
:102660002EC00DF02FC00EF030C00FF0130EBBECDB
:10267000A0F00101DB51D8A440EF93F042EF93F0BA
:102680004BEF93F0090ED890083709370A370B370C
:10269000E82E43EF93F008C10CF009C10DF00AC118
:1026A0000EF00BC10FF03B51BBECA0F020EE28F078
:1026B000040E6F00AFFFDBFFE806FBE22850D8B442
:1026C00064EF93F066EF93F071EF93F020EE0CF06F
:1026D0002250D9262350DA22FF0EDF6EFF0E08EFBC
:1026E00096F020EE0CF02250D9262350DA22020E6A
:1026F000DF6E020E08EF96F0020E0101341933115D
:10270000D8A485EF93F087EF93F0C0EF93F00B0E12
:102710003B19D8A48EEF93F090EF93F0A9EF93F0CC
:102720008E0EF66EFE0EF76E000EF86E02D8A7EF54
:1027300093F00500FA6E0900F550FD6E0900F550A2
:10274000FE6E0900F550FF6EFA50FC0E1200C0EF4D
:1027500093F08E0EF66EFE0EF76E000EF86E02D837
:10276000C0EF93F00500FA6E0900F550FD6E090008
:10277000F550FE6E0900F550FF6EFA50FE0E120085
:1027800060008BF0D9FF60008FF0DAFF6F0078FFF8
:1027900000F16F0074FF01F120EE06F02250D926FF
:1027A0002350DA226F0078FF06F16F0074FF07F103
:1027B00001010051246E0151256E266A276A2450BA
:1027C000025F2550035B2650045B2750055B0051D8
:1027D000335F0151345B06C101F007C102F000C153
:1027E00003F001C104F0910EF66EFE0EF76E000EBE
:1027F000F86E02D809EF94F00500FA6E0900F55062
:10280000FD6E0900F550FE6E0900F550FF6EFA509E
:102810001200010133513411D8A411EF94F013EFD9
:1028200094F079EF93F0020E346F000E336F8E0E3A
:10283000F66EFE0EF76E000EF86E02D82EEF94F0D4
:102840000500FA6E0900F550FD6E0900F550FE6EA8
:102850000900F550FF6EFA50FF0E12008E0EF66E54
:10286000FE0EF76E000EF86E02D845EF94F00500EC
:10287000FA6E0900F550FD6E0900F550FE6E090074
:10288000F550FF6EFA50FF0E12008E0EF66EFE0E21
:10289000F76E000EF86E02D85CEF94F00500FA6E49
:1028A0000900F550FD6E0900F550FE6E0900F55067
:1028B000FF6EFA50FF0E12001F0B050AD8B463EF2B
:1028C00094F065EF94F070EF94F020EE0CF022504D
:1028D000D9262350DA22FE0EDF6E030E08EF96F0A3
:1028E00020EE0CF02250D9262350DA22030EDF6EA0
:1028F000000E0101196F000E1A6F0A0E1B6F000EF9
:102900001C6F6DEF94F0010119511A111B111C116C
:10291000D8B48DEF94F08FEF94F04FEF95F0190746
:10292000000E1A5B1B5B1C5B8E0EF66EFE0EF76EC6
:10293000000EF86E02D8ABEF94F00500FA6E0900B5
:10294000F550FD6E0900F550FE6E0900F550FF6E62
:10295000FA50FF0E12008E0EF66EFE0EF76E000E8F
:10296000F86E02D8C2EF94F00500FA6E0900F55037
:10297000FD6E0900F550FE6E0900F550FF6EFA502D
:10298000FF0E120001013C6F3C51D8B4CAEF94F025
:10299000CCEF94F06DEF94F0025103110411051186
:1029A000D8A4D5EF94F0D7EF94F045EF95F0000E52
:1029B000196F000E1A6F0A0E1B6F000E1C6F0B0EA4
:1029C0003B19D8A4E6EF94F0E8EF94F020EF95F0EF
:1029D0008E0EF66EFE0EF76E000EF86E02D8FFEF4A
:1029E00094F00500FA6E0900F550FD6E0900F550EF
:1029F000FE6E0900F550FF6EFA50FD0E12008E0EAD
:102A0000F66EFE0EF76E000EF86E02D816EF95F019
:102A10000500FA6E0900F550FD6E0900F550FE6ED6
:102A20000900F550FF6EFA50FF0E120020EE0CF078
:102A30002250D9262350DA22040EDF6E6DEF94F077
:102A4000BA8A8E0EF66EFE0EF76E000EF86E02D883
:102A500038EF95F00500FA6E0900F550FD6E09009B
:102A6000F550FE6E0900F550FF6EFA50FF0E120091
:102A700020EE0CF02250D9262350DA22000EDF6E11
:102A8000010E0101D66FBCEF92F020EE0CF0225047
:102A9000D9262350DA22020EDF6E79EF93F020EE72
:102AA0000CF02250D9262350DA22FE0EDF6E6DEF95
:102AB00094F0010119511A111B111C11D8B463EFC4
:102AC00095F065EF95F0ADEF95F01907000E1A5BE4
:102AD0001B5B1C5B8E0EF66EFE0EF76E000EF86E24
:102AE00002D881EF95F00500FA6E0900F550FD6EF1
:102AF0000900F550FE6E0900F550FF6EFA50FF0E0A
:102B0000120001013C6F3C51D8B489EF95F08BEF76
:102B100095F06DEF94F0BA8A8E0EF66EFE0EF76E9B
:102B2000000EF86E02D8A3EF95F00500FA6E0900CA
:102B3000F550FD6E0900F550FE6E0900F550FF6E70
:102B4000FA50FF0E120020EE0CF02250D92623502E
:102B5000DA22000EDF6E40EF95F0000E0C6E000ED4
:102B60000D6E000E0E6E000E0F6E050EBBECA0F08B
:102B7000BA8A8E0EF66EFE0EF76E000EF86E02D852
:102B8000D0EF95F00500FA6E0900F550FD6E0900D2
:102B9000F550FE6E0900F550FF6EFA50FF0E120060
:102BA00020EE0CF02250D9262350DA22FF0EDF6EE1
:102BB000010E0101D66F6EEF93F020EE0CF0225063
:102BC000D9262350DA22DF50246E256A2550000AC8
:102BD000D8B4EDEF95F0D8EF95F02450000AD8B4B2
:102BE000BCEF92F0010AD8B4BFEF92F0030AD8B458
:102BF0007CEF93F0010AD8B483EF94F0070AD8B4BD
:102C000059EF95F0FA0AD8B4ADEF95F0D8EF95F0FA
:102C1000120060005FF2D9FF600063F2DAFF6F001C
:102C200078FFAEF06F0074FFAFF0000199519A1178
:102C30009B119C11D8A41FEF96F021EF96F05DEF49
:102C400096F020EE0BF0AE51D926AF51DA226F008C
:102C500078FFA6F06F0078FFA7F06F0078FFA8F06C
:102C60006F0078FFA9F0A651A711A811A911D8B437
:102C70003CEF96F03EEF96F053EF96F020EE17F013
:102C8000AE51D926AF51DA22DE50A65DDE50A759EB
:102C9000DE50A859DE50A959D8A051EF96F053EF55
:102CA00096F0C2EF96F0010EA66F000EA76F000E11
:102CB000A86F000EA96FC2EF96F097C076F098C08B
:102CC00077F099C078F09AC079F09BC07AF09CC0F8
:102CD0007BF038ECA5F076C0B0F077C0B1F078C0EA
:102CE000B2F079C0B3F00001B351B211B11107E1F4
:102CF000020EB05DD8B07FEF96F081EF96F08BEFCB
:102D000096F0010E976F000E986F000E996F000EEF
:102D10009A6FF0EF98F0B0290AE1B12908E1B229E1
:102D200006E1B329D8A497EF96F099EF96F0A3EFB8
:102D300096F0B0C097F0B1C098F0B2C099F0B3C0AF
:102D40009AF0F0EF98F020EE17F0AE51D926AF517F
:102D5000DA22DE50B05DDE50B159DE50B259DE509D
:102D6000B359D8B0B6EF96F0B8EF96F0BAEF96F048
:102D700099EF96F099C0A6F09AC0A7F09BC0A8F072
:102D80009CC0A9F020EE0FF0AE51D926AF51DA2247
:102D9000DE50DE10DE10DE10D8A4D1EF96F0D3EFB7
:102DA00096F0DDEF96F0000E976F000E986F000E14
:102DB000996F000E9A6FF0EF98F0000EAA6F000E58
:102DC000AB6F000EAC6F000EAD6F9951A6190DE1FF
:102DD0009A51A7190AE19B51A81907E19C51A91919
:102DE000D8A4F5EF96F0F7EF96F0A1EF97F0010E6B
:102DF000A625AA6F000EA721AB6F000EA821AC6F0D
:102E0000000EA921AD6F20EE17F0AE51D926AF51BB
:102E1000DA22DE50AA5DDE50AB59DE50AC59DE50EE
:102E2000AD59D8A016EF97F018EF97F020EF97F074
:102E3000020EAA6F000EAB6F000EAC6F000EAD6FEE
:102E400097C076F098C077F0AAC078F0ABC079F060
:102E5000ACC07AF0ADC07BF038ECA5F076C0B0F035
:102E600077C0B1F078C0B2F079C0B3F00001B0051E
:102E7000B111B211B311D8B440EF97F042EF97F00F
:102E800099EF96F0B0290AE1B12908E1B22906E1EB
:102E9000B329D8A44EEF97F050EF97F052EF97F088
:102EA00099EF96F0B051B111B211B311D8B45BEFF4
:102EB00097F05DEF97F0A1EF97F020EE0BF0AE5199
:102EC000D926AF51DA226F0078FFB0F06F0078FF9B
:102ED000B1F06F0078FFB2F06F0078FFB3F0B3513C
:102EE000B211B11109E1020EB05DD8A07AEF97F0EE
:102EF0007CEF97F099EF97F020EE17F0AE51D926BE
:102F0000AF51DA22DE50B05DDE50B159DE50B25919
:102F1000DE50B359D8B08FEF97F091EF97F099EF5B
:102F200097F0B0C0A6F0B1C0A7F0B2C0A8F0B3C08F
:102F3000A9F0000EAA6F000EAB6F000EAC6F000E72
:102F4000AD6FAA51AB11AC11AD11D8A4AAEF97F097
:102F5000ACEF97F039EF98F0A6C0AAF0A7C0ABF09D
:102F6000A8C0ACF0A9C0ADF0010EAA27000EAB239B
:102F7000AC23AD2320EE17F0AE51D926AF51DA22A3
:102F8000DE50AA5DDE50AB59DE50AC59DE50AD5973
:102F9000D8A0CDEF97F0CFEF97F0E6EF97F0020EC5
:102FA000AA6F000EAB6F000EAC6F000EAD6FA95193
:102FB000A811A71107E1020EA65DD8B0E2EF97F0C5
:102FC000E4EF97F0E6EF97F0D3EF96F097C076F046
:102FD00098C077F0AAC078F0ABC079F0ACC07AF0B6
:102FE000ADC07BF038ECA5F076C0B0F077C0B1F0A2
:102FF00078C0B2F079C0B3F00001B051B111B21194
:10300000B311D8A406EF98F008EF98F00AEF98F003
:1030100039EF98F0B005B111B211B311D8B413EF74
:1030200098F015EF98F099EF96F0B0290AE1B129E0
:1030300008E1B22906E1B329D8A421EF98F023EFE3
:1030400098F025EF98F099EF96F0A651AA190DE1A6
:10305000A751AB190AE1A851AC1907E1A951AD1963
:10306000D8A435EF98F037EF98F0B4EF97F0D3EF9E
:1030700096F0AEC076F0AFC077F0AAC078F0ABC0E3
:1030800079F0ACC07AF0ADC07BF0FF0E7C6FFF0E24
:103090007D6FFF0E7E6FFF0E7F6FF1EC98F00001E9
:1030A000A56FA551D8A457EF98F059EF98F07CEF91
:1030B00098F099519A119B119C11D8B462EF98F035
:1030C00064EF98F07CEF98F0AEC076F0AFC077F088
:1030D00099C078F09AC079F09BC07AF09CC07BF0E0
:1030E000AAC07CF0ABC07DF0ACC07EF0ADC07FF07C
:1030F000F1EC98F00001A56FA551D8A482EF98F0EB
:1031000084EF98F0D2EF98F020EE0BF0AE51D92674
:10311000AF51DA226000ABF2DEFF6000AFF2DEFFFB
:103120006000B3F2DEFF6000B7F2DEFF20EE0FF0CA
:10313000AE51D926AF51DA2210EE17F0AE51E1268A
:10314000AF51E222FE0EE624A16FFF0EE620A26F31
:10315000FF0EE620A36FFF0EE620A46FDE50A15DF8
:10316000DE50A259DE50A359DE50A459D8A0BBEFBF
:1031700098F0BDEF98F0C8EF98F020EE0FF0AE5148
:10318000D926AF51DA22DE06000EDE5ADE5ADE5AAA
:1031900020EE04F0AE51D926AF51DA22000EDB80CA
:1031A000E8EF98F0A505D8B4D8EF98F0DAEF98F0EA
:1031B000E4EF98F0010EAA6F000EAB6F000EAC6F3B
:1031C000000EAD6FE8EF98F0AA69AB69AC69AD6924
:1031D000AAC097F0ABC098F0ACC099F0ADC09AF01F
:1031E0001200020E0001966F7B517A11791109E1EC
:1031F000020E785DD8A0FFEF98F001EF99F0A7EFED
:103200009BF020EE17F07651D9267751DA22DE5066
:10321000785DDE507959DE507A59DE507B59D8B04E
:1032200014EF99F016EF99F0A7EF9BF088EF9BF061
:1032300078C094F079C095F0D8909531816F943131
:10324000806F805194278151952376C070F077C0AC
:1032500071F020EE23F07651D9267751DA226F00F3
:1032600078FF80F06F0078FF81F06F0078FF82F0C8
:103270006F0078FF83F094C084F095C085F0090E4C
:10328000866FD89085338433862F41EF99F084512F
:103290008025726F85518121736F000E8221746FBA
:1032A000000E8321756FFCECC6F00001966F9651FD
:1032B000D8B45DEF99F05FEF99F061EF99F0A7EF67
:1032C0009BF0FF0E806F010E816F94C082F095C05D
:1032D00083F0805182178151831776C084F077C0C4
:1032E00085F08251842783518523330E8425926F84
:1032F000000E8521936F944B952B78B182EF99F056
:1033000084EF99F089EF99F07CC08EF08F6BA5EF78
:1033100099F07C51806F816B803B813BF00E81176F
:1033200080510F0B8113F00E801760004BF2D9FF14
:1033300060004FF2DAFFDF500F0B826F836B80511A
:1033400082118E6F815183118F6F60004BF2D9FF14
:1033500060004FF2DAFF60003BF2DFFF20EE03F087
:103360007651D9267751DA22010EDF6E76C070F0E1
:1033700077C071F020EE23F07651D9267751DA220A
:103380006F0078FF80F06F0078FF81F06F0078FFAA
:1033900082F06F0078FF83F094C084F095C085F0D0
:1033A000090E866FD89085338433862FD2EF99F03B
:1033B00084518025726F85518121736F000E8221A7
:1033C000746F000E8321756FFCECC6F00001966FE0
:1033D0009651D8B4EEEF99F0F0EF99F0F2EF99F042
:1033E000A7EF9BF0FF0E806F010E816F94C082F0FB
:1033F00095C083F0805182178151831776C084F085
:1034000077C085F08251842783518523330E84252C
:10341000926F000E8521936F78B111EF9AF013EF40
:103420009AF033EF9AF07CC080F07DC081F07EC0CE
:1034300082F07FC083F081C080F082C081F083C0C1
:1034400082F0836B0F0E801760004BF2D9FF600093
:103450004FF2DAFFDF50F00B8011846F8451906FD0
:10346000916B49EF9AF07CC080F07DC081F07EC006
:1034700082F07FC083F0050E43EF9AF0D89083333B
:10348000823381338033E82E3EEF9AF08051906F83
:10349000916B60004BF2D9FF60004FF2DAFF6000E1
:1034A00043F2DFFF20EE03F07651D9267751DA227E
:1034B000010EDF6EA7EF9BF076C070F077C071F061
:1034C00020EE23F07651D9267751DA226F0078FF6B
:1034D00080F06F0078FF81F06F0078FF82F06F005E
:1034E00078FF83F078C084F079C085F07AC086F0E8
:1034F0007BC087F085C084F086C085F087C086F0E9
:10350000876B80518425726F81518521736F825141
:103510008621746F83518721756FFCECC6F0000122
:10352000966F9651D8B497EF9AF099EF9AF09BEF77
:103530009AF0A7EF9BF0FF0E806F010E816F78C0AD
:1035400082F079C083F0D890823783378051821718
:103550008151831776C084F077C085F0825184272B
:1035600083518523330E8425016E000E8521026E62
:103570007CC003F07DC004F0B5ECD2F0000120EE79
:1035800003F07651D9267751DA22010EDF6EA7EFCC
:103590009BF076C070F077C071F020EE23F076518A
:1035A000D9267751DA226F0078FF80F06F0078FF1C
:1035B00081F06F0078FF82F06F0078FF83F078C0B1
:1035C00084F079C085F07AC086F07BC087F0080E61
:1035D000EFEF9AF0D8908733863385338433E82E23
:1035E000EAEF9AF080518425726F81518521736FC3
:1035F00082518621746F83518721756FFCECC6F070
:103600000001966F9651D8B408EF9BF00AEF9BF03B
:103610000CEF9BF0A7EF9BF0FF0E806F010E816F08
:1036200078C082F079C083F0D89082378337D89001
:1036300082378337805182178151831776C084F097
:1036400077C085F08251842783518523330E8425EA
:10365000016E000E8521026EF6ECC8F0000E01141A
:103660000001866F000E0214876F000E0314886F2E
:10367000F00E0414896FFF0E7C158A6FFF0E7D1506
:103680008B6FFF0E7E158C6F0F0E7F158D6F865121
:103690008A117C6F87518B117D6F88518C117E6FE1
:1036A00089518D117F6FFF0E806F010E816F78C081
:1036B00082F079C083F0D89082378337D8908237F0
:1036C0008337805182178151831776C084F077C089
:1036D00085F08251842783518523330E8425016E22
:1036E000000E8521026E7CC003F07DC004F07EC018
:1036F00005F07FC006F0CBECCCF0000120EE03F02B
:103700007651D9267751DA22010EDF6EA7EF9BF0B2
:103710006000DBF1D9FF6000DFF1DAFFDF50806F7E
:10372000816B8151000AD8B498EF9BF0A7EF9BF012
:103730008051010AD8B418EF99F0030AD8B45CEFAD
:103740009AF0010AD8B4C9EF9AF0A7EF9BF096510E
:103750001200CBA2AEEF9BF0B0EF9BF0C5EF9BF059
:103760000101E505E611D8A4B8EF9BF0BAEF9BF094
:10377000C5EF9BF0E305E411D8A4C1EF9BF0C3EFC4
:103780009BF0C5EF9BF04EECCAF0CBA2CAEF9BF0CA
:10379000CCEF9BF0F3EF9BF00101E505E611D8A417
:1037A000D4EF9BF0D6EF9BF0F3EF9BF0020EE31902
:1037B000E411D8A4DEEF9BF0E0EF9BF0F3EF9BF079
:1037C000000EE66F020EE56F090E0101D06F1E0EAE
:1037D000CF6FE40EE82EFED7CF2FFCD7D02FFAD72D
:1037E00000F073ECCBF0020E0101E519E611D8A44C
:1037F000FCEF9BF0FEEF9BF021EF9CF0E305E41162
:10380000D8A405EF9CF007EF9CF021EF9CF0CBA231
:103810000CEF9CF00EEF9CF021EF9CF0000EE66F99
:10382000030EE56F090E0101D06F1E0ECF6FE40E7F
:10383000E82EFED7CF2FFCD7D02FFAD700F02CECF4
:10384000CBF0020E0101E519E611D8A42AEF9CF095
:103850002CEF9CF050EF9CF0020EE319E411D8A479
:1038600034EF9CF036EF9CF050EF9CF0CBA23BEF96
:103870009CF03DEF9CF050EF9CF0000EE66F040EC4
:10388000E56F090E0101D06F1E0ECF6FE40EE82E1A
:10389000FED7CF2FFCD7D02FFAD700F009ECC4F019
:1038A000030E0101E519E611D8A459EF9CF05BEF76
:1038B0009CF07EEF9CF0E305E411D8A462EF9CF04D
:1038C00064EF9CF07EEF9CF0CBA269EF9CF06BEF75
:1038D0009CF07EEF9CF0000EE66F070EE56F090E80
:1038E0000101D06F1E0ECF6FE40EE82EFED7CF2F52
:1038F000FCD7D02FFAD700F0BDECBDF0030E0101CC
:10390000E519E611D8A487EF9CF089EF9CF0ADEFA4
:103910009CF0020EE319E411D8A491EF9CF093EF10
:103920009CF0ADEF9CF0CBA298EF9CF09AEF9CF04E
:10393000ADEF9CF0000EE66F060EE56F090E01017B
:10394000D06F1E0ECF6FE40EE82EFED7CF2FFCD720
:10395000D02FFAD700F076ECC4F0040E0101E5197F
:10396000E611D8A4B6EF9CF0B8EF9CF0E2EF9CF023
:10397000E305E411D8A4BFEF9CF0C1EF9CF0E2EFA7
:103980009CF0CBA2C6EF9CF0C8EF9CF0E2EF9CF05D
:10399000090E0101D06F1E0ECF6FE40EE82EFED788
:1039A000CF2FFCD7D02FFAD700F02BC16AF02CC153
:1039B0006BF0020E00016C6F9BECC3F06AC02BF140
:1039C0006BC02CF1040E0101E519E611D8A4EBEF50
:1039D0009CF0EDEF9CF011EF9DF0020EE319E41165
:1039E000D8A4F5EF9CF0F7EF9CF011EF9DF0CBA27F
:1039F000FCEF9CF0FEEF9CF011EF9DF0000EE66FE7
:103A0000050EE56F090E0101D06F1E0ECF6FE40E9B
:103A1000E82EFED7CF2FFCD7D02FFAD700F0BAEC84
:103A2000CBF0050E0101E519E611D8A41AEF9DF0BF
:103A30001CEF9DF03BEF9DF0E305E411D8A423EFCC
:103A40009DF025EF9DF03BEF9DF0CBA22AEF9DF07E
:103A50002CEF9DF03BEF9DF0090E0101D06F1E0E83
:103A6000CF6FE40EE82EFED7CF2FFCD7D02FFAD79A
:103A700000F026ECC6F0050E0101E519E611D8A408
:103A800044EF9DF046EF9DF066EF9DF0020EE319C6
:103A9000E411D8A44EEF9DF050EF9DF066EF9DF03D
:103AA000CBA255EF9DF057EF9DF066EF9DF0090E0C
:103AB0000101D06F1E0ECF6FE40EE82EFED7CF2F80
:103AC000FCD7D02FFAD700F0BBECC5F0060E0101F1
:103AD000E519E611D8A46FEF9DF071EF9DF09DEF11
:103AE0009DF0E305E411D8A478EF9DF07AEF9DF006
:103AF0009DEF9DF0CBA27FEF9DF081EF9DF09DEFBC
:103B00009DF0090E0101D06F1E0ECF6FE40EE82E5E
:103B1000FED7CF2FFCD7D02FFAD700F029C16AF0FB
:103B20002AC16BF0020E00016C6F9BECC3F06AC0FF
:103B300029F16BC02AF12CECC3F0060E0101E51946
:103B4000E611D8A4A6EF9DF0A8EF9DF0C8EF9DF078
:103B5000020EE319E411D8A4B0EF9DF0B2EF9DF08E
:103B6000C8EF9DF0CBA2B7EF9DF0B9EF9DF0C8EF85
:103B70009DF0090E0101D06F1E0ECF6FE40EE82EEE
:103B8000FED7CF2FFCD7D02FFAD700F062ECBEF0D3
:103B9000070E0101E519E611D8A4D1EF9DF0D3EF8E
:103BA0009DF0FDEF9DF0E305E411D8A4DAEF9DF060
:103BB000DCEF9DF0FDEF9DF0CBA2E1EF9DF0E3EF98
:103BC0009DF0FDEF9DF0090E0101D06F1E0ECF6F2D
:103BD000E40EE82EFED7CF2FFCD7D02FFAD700F077
:103BE0002DC16AF02EC16BF0020E00016C6F9BECD0
:103BF000C3F06AC02DF16BC02EF1070E0101E5196B
:103C0000E611D8A406EF9EF008EF9EF033EF9EF089
:103C1000020EE319E411D8A410EF9EF012EF9EF00B
:103C200033EF9EF0CBA217EF9EF019EF9EF033EF2B
:103C30009EF0090E0101D06F1E0ECF6FE40EE82E2C
:103C4000FED7CF2FFCD7D02FFAD700F02FC16AF0C4
:103C500030C16BF0040E00016C6F9BECC3F06AC0C6
:103C60002FF16BC030F1070E0101E519E611D8A460
:103C70003CEF9EF03EEF9EF05EEF9EF0030EE319E8
:103C8000E411D8A446EF9EF048EF9EF05EEF9EF060
:103C9000CBA24DEF9EF04FEF9EF05EEF9EF0090E2F
:103CA0000101D06F1E0ECF6FE40EE82EFED7CF2F8E
:103CB000FCD7D02FFAD700F091ECC6F012006000CC
:103CC0002FF0D9FF600033F0DAFF6F0078FF18F0B3
:103CD0006F0074FF19F01C0E09241C6E000E0A20E0
:103CE0001D6E1CC001F01DC002F0000E046E200EFF
:103CF000036E000E066E0B0E056E7DECD2F0000E0C
:103D00001B6E000E1A6E1AC01EF01BC01FF0000EB4
:103D1000176E080E166E1E5018240D6E1F501920B7
:103D20000E6E600037F0F6FF60003BF0F7FF000E0C
:103D3000F86E0800F5502E0AD8A4A1EF9EF0A3EF6C
:103D40009EF027EF9FF01E5018240D6E1F50192073
:103D50000E6E600037F0F6FF60003BF0F7FF000EDC
:103D6000F86E08006F00D4FF20F01E4A1F2A2E0EA6
:103D70002018D8A4BEEF9EF0C0EF9EF0DAEF9EF0C0
:103D80001F5009E1030E1E5CD8A0C9EF9EF0CBEFD7
:103D90009EF0CDEF9EF0DAEF9EF01A501C24D96E03
:103DA0001B501D20DA6E600083F0DFFF1A4A1B2AC9
:103DB000A3EF9EF02F0E2018D8B4E1EF9EF0E3EFB2
:103DC0009EF0F7EF9EF05C0E2018D8B4EAEF9EF05C
:103DD000ECEF9EF0F7EF9EF0200E2064F2EF9EF0E5
:103DE000F4EF9EF0F7EF9EF0060EBAEFA0F01E5033
:103DF00018240D6E1F5019200E6E60002FF0D9FF91
:103E0000600033F0DAFF600037F0DEFF60003BF067
:103E1000DDFF200E20640FEF9FF011EF9FF017EFF2
:103E20009FF0000E126E200E116E1BEF9FF0000E21
:103E3000126E240E116E20EE0BF01C50D9261D5070
:103E4000DA22600047F0DFFF000EBAEFA0F01E504C
:103E500018240D6E1F5019200E6E600037F0F6FF0B
:103E600060003BF0F7FF000EF86E08006F00D4FF13
:103E700020F01E4A1F2A210E206041EF9FF043EFE1
:103E80009FF045EF9FF069EFA0F02F0E2018D8B4F7
:103E90004CEF9FF04EEF9FF05BEF9FF05C0E201811
:103EA000D8A455EF9FF057EF9FF08DEF9FF05BEF99
:103EB0009FF01E4A1F2A1E5018240D6E1F501920F5
:103EC0000E6E600037F0F6FF60003BF0F7FF000E6B
:103ED000F86E0800F5502F0AD8B471EF9FF073EF19
:103EE0009FF059EF9FF01E5018240D6E1F5019209F
:103EF0000E6E600037F0F6FF60003BF0F7FF000E3B
:103F0000F86E0800F5505C0AD8B489EF9FF08BEF8B
:103F10009FF059EF9FF069EFA0F02E0E2018D8B453
:103F200094EF9FF096EF9FF0A1EF9FF016501A5C70
:103F300017501B58D8A09FEF9FF0A1EF9FF0C0EF44
:103F40009FF00B0E16181710D8B4A9EF9FF0ABEF27
:103F50009FF0F4EF9EF02E0E2018D8B4B2EF9FF031
:103F6000B4EF9FF0B6EF9FF0F4EF9EF0000E1B6EE3
:103F7000080E1A6E000E176E0B0E166E27EF9FF0CE
:103F80007F0E2064C6EF9FF0C8EF9FF0D9EF9FF03F
:103F900020507F0B0D6E0E6AB80E0D24F66EFD0ECE
:103FA0000E20F76EF86A000EF82208006F00D4FFAA
:103FB00020F02050D4ECD3F001500210D8B4E3EF3D
:103FC0009FF0E5EF9FF036EFA0F01E5018240D6E25
:103FD0001F5019200E6E600037F0F6FF60003BF0B6
:103FE000F7FF000EF86E08006F00D4FF15F01E4AB0
:103FF0001F2A1550CFECD3F001500210D8B403EFB4
:10400000A0F005EFA0F0F4EF9EF0FF0E0D6EFF0E96
:104010000E6E16C00FF017C010F00D500F260E5088
:1040200010220F501A5C10501B58D8A01AEFA0F0A5
:104030001CEFA0F01EEFA0F0F4EF9EF01A501C242D
:10404000D96E1B501D20DA6E600083F0DFFF1A4A24
:104050001B2A1A501C24D96E1B501D20DA6E6000DA
:1040600057F0DFFF1A4A1B2A27EF9FF0DD0E016E83
:10407000FE0E026E20C003F0046AC5ECCDF00150C4
:104080000210D8B446EFA0F048EFA0F04AEFA0F03D
:10409000F4EF9EF0600E206450EFA0F052EFA0F01D
:1040A0005CEFA0F07B0E206058EFA0F05AEFA0F07C
:1040B0005CEFA0F0200E205E1A501C24D96E1B501D
:1040C0001D20DA6E600083F0DFFF1A4A1B2A27EFFB
:1040D0009FF01E5018240D6E1F5019200E6E6000A8
:1040E0002FF0D9FF600033F0DAFF600037F0DEFF19
:1040F00060003BF0DDFF1A501B10D8A482EFA0F047
:1041000084EFA0F086EFA0F0F4EF9EF0600073F073
:10411000D9FF600077F0DAFFE50EDE18D8A493EF40
:10412000A0F095EFA0F09DEFA0F0600073F0D9FF34
:10413000600077F0DAFF050EDF6E200E2064A3EF3B
:10414000A0F0A5EFA0F0ABEFA0F0000E146E000EF3
:10415000136EAFEFA0F0000E146E040E136E20EE7F
:104160000BF01C50D9261D50DA2260004FF0DFFF03
:1041700024EF9FF012001C6EBA9A160E016E000E0C
:10418000026E0C0E036E000E046E000E066E040E20
:10419000056E42ECD0F08E0EF66EFE0EF76E000E3F
:1041A000F86E02D8EFEFA0F00500FA6E0900F550A6
:1041B000FD6E0900F550FE6E0900F550FF6EFA50D5
:1041C0001C50040D380EF324F66EFE0EF420F76E2C
:1041D000F86A000EF8220800F550400912008E0E11
:1041E000F66EFE0EF76E000EF86E02D806EFA1F026
:1041F0000500FA6E0900F550FD6E0900F550FE6EDF
:104200000900F550FF6EFA50195012008E0EF66E2E
:10421000FE0EF76E000EF86E02D81DEFA1F005003D
:10422000FA6E0900F550FD6E0900F550FE6E0900AA
:10423000F550FF6EFA50185012008E0EF66EFE0EFC
:10424000F76E000EF86E02D834EFA1F00500FA6E9A
:104250000900F550FD6E0900F550FE6E0900F5509D
:10426000FF6EFA50175012008E0EF66EFE0EF76EAD
:10427000000EF86E02D84BEFA1F00500FA6E0900AF
:10428000F550FD6E0900F550FE6E0900F550FF6E09
:10429000FA50165012008E0EF66EFE0EF76E000EDD
:1042A000F86E02D872EFA1F00500FA6E0900F55021
:1042B000FD6E0900F550FE6E0900F550FF6EFA50D4
:1042C0001C50040D010EF326000EF422380EF324C8
:1042D000F66EFE0EF420F76EF86A000EF822080063
:1042E000F5501200050E1C18D8A479EFA1F07BEF51
:1042F000A1F092EFA1F08E0EF66EFE0EF76E000E9C
:10430000F86E02D892EFA1F00500FA6E0900F550A0
:10431000FD6E0900F550FE6E0900F550FF6EFA5073
:10432000FF0E1200000E1B6E140E1A6E8E0EF66E2D
:10433000FE0EF76E000EF86E02D8ADEFA1F005008C
:10434000FA6E0900F550FD6E0900F550FE6E090089
:10435000F550FF6EFA50FF0E12001D6E1A06D8A01F
:104360001B061D28D8A4B7EFA1F0B9EFA1F0C2EF4A
:10437000A1F01A501B10D8A4C0EFA1F0C2EFA1F019
:1043800096EFA1F01C50040D020EF326000EF4224D
:10439000380EF324F66EFE0EF420F76EF86A000E67
:1043A000F8220800F550020AD8A4D9EFA1F0DBEFFB
:1043B000A1F0F7EFA1F01DC01EF08E0EF66EFE0EFE
:1043C000F76E000EF86E02D8F4EFA1F00500FA6E59
:1043D0000900F550FD6E0900F550FE6E0900F5501C
:1043E000FF6EFA50FF0E12001D6EC5EFA2F01C50BA
:1043F000040D020EF326000EF422380EF324F66E9E
:10440000FE0EF420F76EF86A000EF8220800F55050
:10441000E806D8A40EEFA2F010EFA2F04CEFA2F045
:10442000000E126E000E136E0A0E146E000E156E44
:104430008E0EF66EFE0EF76E000EF86E02D82FEF9F
:10444000A2F00500FA6E0900F550FD6E0900F55066
:10445000FE6E0900F550FF6EFA50FF0E12001D6E41
:104460001206000E135A145A155A1D50D8A43BEFC9
:10447000A2F03DEFA2F048EFA2F01250131014107A
:104480001510D8A446EFA2F048EFA2F018EFA2F062
:10449000000E1D6EC5EFA2F01C50040D020EF32697
:1044A000000EF422380EF324F66EFE0EF420F76EA2
:1044B000F86A000EF8220800F550040AD8A463EF49
:1044C000A2F065EFA2F0C5EFA2F08E0EF66EFE0E22
:1044D000F76E000EF86E02D87CEFA2F00500FA6EBF
:1044E0000900F550FD6E0900F550FE6E0900F5500B
:1044F000FF6EFA50FF0E1200216E8E0EF66EFE0E4B
:10450000F76E000EF86E02D894EFA2F00500FA6E76
:104510000900F550FD6E0900F550FE6E0900F550DA
:10452000FF6EFA50FF0E1200206E8E0EF66EFE0E1B
:10453000F76E000EF86E02D8ACEFA2F00500FA6E2E
:104540000900F550FD6E0900F550FE6E0900F550AA
:10455000FF6EFA50FF0E12001F6E8E0EF66EFE0EEC
:10456000F76E000EF86E02D8C4EFA2F00500FA6EE6
:104570000900F550FD6E0900F550FE6E0900F5507A
:10458000FF6EFA50FF0E12001E6E8E0EF66EFE0EBD
:10459000F76E000EF86E02D8DCEFA2F00500FA6E9E
:1045A0000900F550FD6E0900F550FE6E0900F5504A
:1045B000FF6EFA50FF0E12001C50040D030EF3267E
:1045C000000EF422380EF324F66EFE0EF420F76E81
:1045D000F86A000EF8220800F5500009D8A4F3EF9D
:1045E000A2F0F5EFA2F0F6EFA2F0BA8A20EE1DF0ED
:1045F00000EE0CF0040E6F006FFFEBFFE806FBE22D
:1046000012006000D3F2D9FF6000D7F2DAFF6F002A
:1046100078FFCCF06F0074FFCDF0000120EE0EF0BB
:10462000B451D926B551DA226F0078FFB8F06F0087
:1046300078FFB9F06F0078FFBAF06F0078FFBBF039
:10464000200EB825C86F000EB921C96F000EBA211F
:10465000CA6F000EBB21CB6F20EE16F0B451D926E5
:10466000B551DA22DE50DE10DE10DE10D8B43BEF9A
:10467000A3F03DEFA3F048EFA3F0CB5109E1200EEA
:10468000CA5DD8A046EFA3F048EFA3F04BEFA3F02C
:10469000040E37EFA5F0FF0EC815B86F010EC9154F
:1046A000B96F000ECA15BA6F000ECB15BB6FB851AB
:1046B000B911BA11BB11D8A460EFA3F062EFA3F057
:1046C00000EFA5F020EE16F0B451D926B551DA224C
:1046D000DE2A000EDE22DE22DE2220EE12F0B451AF
:1046E000D926B551DA22DE50DE10DE10DE10D8A455
:1046F0007CEFA3F07EEFA3F0BEEFA3F020EE07F077
:10470000CC51D926CD51DA226F0078FFB8F06F0076
:1047100074FFB9F0B851BA6FB951BB6FBC6BBD6BC8
:10472000C8C0BEF0C9C0BFF0CAC0C0F0CBC0C1F0A5
:10473000060EA0EFA3F0D890C133C033BF33BE3311
:10474000E82E9BEFA3F0BA51BE5DBB51BF59BC51DF
:10475000C059BD51C159D8A0B0EFA3F0B2EFA3F03A
:1047600000EFA5F020EE16F0B451D926B551DA22AB
:10477000DE6ADE6ADE6ADD6A48EFA3F0FF0EB86F1C
:10478000FF0EB96F20EE09F0CC51D926CD51DA22B7
:104790006F0078FFBAF06F0074FFBBF0B851BA2712
:1047A000B951BB23C8C0BCF0C9C0BDF0CAC0BEF07F
:1047B000CBC0BFF00A0EE2EFA3F0D890BF33BE33F8
:1047C000BD33BC33E82EDDEFA3F0BA51BC15C06F8A
:1047D000BB51BD15C16F000EBE15C26F000EBF15D7
:1047E000C36FC051C111C211C311D8A4FAEFA3F015
:1047F000FCEFA3F000EFA5F0B4C076F0B5C077F001
:1048000020EE12F0B451D926B551DA226F0078FFAC
:1048100078F06F0078FF79F06F0078FF7AF06F0022
:1048200078FF7BF038ECA5F076C0CEF077C0CFF003
:1048300078C0D0F079C0D1F00001D151D011CF11A2
:1048400007E1020ECE5DD8B028EFA4F02AEFA4F065
:104850002DEFA4F0020E37EFA5F0CE290AE1CF2903
:1048600008E1D02906E1D129D8A439EFA4F03BEF23
:10487000A4F03EEFA4F0010E37EFA5F020EE17F004
:10488000CC51D926CD51DA22DE50CE5DDE50CF5943
:10489000DE50D059DE50D159D8A051EFA4F053EFDB
:1048A000A4F0CCEFA4F0B651B711D8A45AEFA4F0FD
:1048B0005CEFA4F068EFA4F020EE16F0B451D92616
:1048C000B551DA22DE6ADE6ADE6ADD6A48EFA3F0FD
:1048D000B4C097F0B5C098F020EE12F0B451D926CC
:1048E000B551DA226F0078FF99F06F0078FF9AF0E7
:1048F0006F0078FF9BF06F0078FF9CF009EC96F05A
:1049000097C0CEF098C0CFF099C0D0F09AC0D1F047
:104910000001CE51CF11D011D111D8A492EFA4F043
:1049200094EFA4F097EFA4F0070E37EFA5F0CE05B3
:10493000CF11D011D111D8A4A0EFA4F0A2EFA4F010
:10494000A4EFA4F02AEFA4F0CE290AE1CF2908E1D0
:10495000D02906E1D129D8A4B0EFA4F0B2EFA4F099
:10496000B4EFA4F03BEFA4F0CCC070F0CDC071F078
:10497000CEC072F0CFC073F0D0C074F0D1C075F06B
:1049800011ECBDF00009D8B4C8EFA4F0CAEFA4F050
:10499000CCEFA4F03BEFA4F0000120EE12F0B451F4
:1049A000D926B551DA2260003BF3DEFF60003FF309
:1049B000DEFF600043F3DEFF600047F3DEFFCCC0A4
:1049C0000DF0CDC00EF0CEC00FF0CFC010F0D0C0B3
:1049D00011F0D1C012F0E3ECC4F0000120EE16F0AB
:1049E000B451D926B551DA22600037F0DEFF6000FD
:1049F0003BF0DEFF60003FF0DEFF600043F0DEFFD3
:104A000020EE0EF0B451D926B551DA22600023F31E
:104A1000DEFF600027F3DEFF60002BF3DEFF6000A7
:104A20002FF3DEFFFF0EB86F010EB96FC8C0BAF0EA
:104A3000C9C0BBF0B851BA17B951BB17CCC0BCF054
:104A4000CDC0BDF0BA51BC27BB51BD23330EBC272E
:104A5000000EBD2320EE1AF0B451D926B551DA224A
:104A60006000F3F2DEFF6000F7F2DDFF000E1200DF
:104A70006000DBF1D9FF6000DFF1DAFF6F0078FF43
:104A80008FF06F0074FF90F000017B517A11791163
:104A900009E1020E785DD8A050EFA5F052EFA5F025
:104AA00067EFA5F020EE17F08F51D9269051DA224A
:104AB000DE50785DDE507959DE507A59DE507B59F0
:104AC000D8A065EFA5F067EFA5F071EFA5F0010E96
:104AD000876F000E886F000E896F000E8A6F5DEF82
:104AE000A7F08769886989698A693EEFA7F078C06D
:104AF0008DF079C08EF0D8908E317D6F8D317C6FC6
:104B00007C518D277D518E238FC070F090C071F045
:104B100020EE23F08F51D9269051DA226F0078FFD2
:104B20007CF06F0078FF7DF06F0078FF7EF06F0003
:104B300078FF7FF08DC080F08EC081F0090E826F0B
:104B4000D89081338033822FA0EFA5F080517C254F
:104B5000726F81517D21736F000E7E21746F000E84
:104B60007F21756FFCECC6F00009D8B4BAEFA5F050
:104B7000BCEFA5F0BEEFA5F05DEFA7F0FF0E0001C2
:104B80007C6F010E7D6F8DC07EF08EC07FF07C51FA
:104B90007E177D517F178FC080F090C081F07E51CD
:104BA00080277F518123330E8025D96E000E81210D
:104BB000DA6EDF50826F82518B6F8C6B8D4B8E2B38
:104BC0008FC070F090C071F020EE23F08F51D92685
:104BD0009051DA226F0078FF7CF06F0078FF7DF053
:104BE0006F0078FF7EF06F0078FF7FF08DC080F05F
:104BF0008EC081F0090E826FD89081338033822F6E
:104C0000FCEFA5F080517C25726F81517D21736F7F
:104C1000000E7E21746F000E7F21756FFCECC6F0D4
:104C20000009D8B416EFA6F018EFA6F01AEFA6F018
:104C30005DEFA7F0FF0E00017C6F010E7D6F8DC050
:104C40007EF08EC07FF07C517E177D517F178FC024
:104C500080F090C081F07E5180277F518123330EF8
:104C60008025D96E000E8121DA6EDF50826F82516D
:104C7000846F836B83518B1384518C1378B143EF12
:104C8000A6F045EFA6F04DEFA6F0FF0E8B15856F51
:104C90000F0E8C15866F5DEFA6F08BC07CF08CC07C
:104CA0007DF0040E7E6FD8907D337C337E2F53EFE2
:104CB000A6F07CC085F07DC086F085C087F086C0F8
:104CC00088F0896B8A6B5DEFA7F08FC070F090C0A1
:104CD00071F020EE23F08F51D9269051DA226F0027
:104CE00078FF7CF06F0078FF7DF06F0078FF7EF03A
:104CF0006F0078FF7FF078C080F079C081F07AC0D3
:104D000082F07BC083F081C080F082C081F083C0DC
:104D100082F0836B7C518025726F7D518121736F8E
:104D20007E518221746F7F518321756FFCECC6F038
:104D30000009D8B49EEFA6F0A0EFA6F0A2EFA6F06F
:104D40005DEFA7F0FF0E00017C6F010E7D6F78C054
:104D50007EF079C07FF0D8907E377F377C517E1708
:104D60007D517F178FC080F090C081F07E518027E9
:104D70007F518123330E8025016E000E8121026E4A
:104D80005FECD2F001C087F002C088F00001896BAF
:104D90008A6B5DEFA7F08FC070F090C071F020EECD
:104DA00023F08F51D9269051DA226F0078FF7CF0E2
:104DB0006F0078FF7DF06F0078FF7EF06F0078FF66
:104DC0007FF078C080F079C081F07AC082F07BC03B
:104DD00083F0080EF1EFA6F0D8908333823381334D
:104DE0008033E82EECEFA6F07C518025726F7D5168
:104DF0008121736F7E518221746F7F518321756F82
:104E0000FCECC6F00009D8B408EFA7F00AEFA7F051
:104E10000CEFA7F05DEFA7F0FF0E00017C6F010E15
:104E20007D6F78C07EF079C07FF0D8907E377F3775
:104E3000D8907E377F377C517E177D517F178FC08A
:104E400080F090C081F07E5180277F518123330E06
:104E50008025016E000E8121026EF6ECC8F0FF0E77
:104E600001140001876FFF0E0214886FFF0E0314F8
:104E7000896F0F0E04148A6F5DEFA7F060003FF298
:104E8000D9FF600043F2DAFFDF507C6F7D6B7D510C
:104E9000000AD8B44EEFA7F067EFA5F07C51010AE5
:104EA000D8B477EFA5F0030AD8B465EFA6F0010AED
:104EB000D8B4CBEFA6F067EFA5F087C076F088C036
:104EC00077F089C078F08AC079F0120065EFA9F018
:104ED000000E90EFA9F0020E0101D66F020E366FA0
:104EE000000E356F60008BF0D9FF60008FF0DAFFA5
:104EF00010EE00F10C0E6F006FFFE3FFE806FBE21F
:104F0000DB51D8A486EFA7F088EFA7F091EFA7F0C8
:104F1000090ED890083709370A370B37E82E89EF82
:104F2000A7F00551041108E10205020E0359D8B09B
:104F30009CEFA7F09EEFA7F0B5EFA7F0010E3D6F35
:104F400008C10CF009C10DF00AC10EF00BC10FF041
:104F5000080EBBECA0F020EE28F0040E6F00AFFFAF
:104F6000DBFFE806FBE2CAEFA7F0000E3D6F08C1C9
:104F70000CF009C10DF00AC10EF00BC10FF0090EC3
:104F8000BBECA0F020EE28F0040E6F00AFFFDBFFBB
:104F9000E806FBE22850D8B4D0EFA7F0D2EFA7F094
:104FA000DDEFA7F020EE0CF02250D9262350DA22B4
:104FB000FE0EDF6E010E90EFA9F0000E01011D6FD5
:104FC000000E1E6F040E1F6F000E206F20EE0CF0FF
:104FD0002250D9262350DA22030EDF6EDAEFA7F033
:104FE00001011D511E111F112011D8B4FAEFA7F0B5
:104FF000FCEFA7F03FEFA8F01D07000E1E5B1F5B44
:10500000205B8E0EF66EFE0EF76E000EF86E02D866
:1050100018EFA8F00500FA6E0900F550FD6E0900C2
:10502000F550FE6E0900F550FF6EFA50FF0E1200AB
:105030002D6E2D28D8B41FEFA8F021EFA8F0DAEFDD
:10504000A7F0FE0E2D18D8A428EFA8F02AEFA8F09C
:1050500035EFA8F020EE0CF02250D9262350DA22AA
:10506000020EDF6E020E90EFA9F020EE0CF022503F
:10507000D9262350DA22FE0EDF6EDAEFA7F020EEFB
:105080000CF02250D9262350DA22FE0EDF6EDAEF22
:10509000A7F001010251031104110511D8B453EF17
:1050A000A8F055EFA8F0FCEFA8F060008BF0D9FF56
:1050B00060008FF0DAFF6F0078FF00F16F0074FF7F
:1050C00001F120EE06F02250D9262350DA226F009B
:1050D00078FF06F16F0074FF07F10051246E015153
:1050E000256E266A276A2450025F2550035B2650EE
:1050F000045B2750055B0051355F0151365B06C1EB
:1051000001F007C102F0000E046E036800C105F053
:1051100001C106F0B0ECB8F006C101F007C102F021
:1051200000C103F001C104F0910EF66EFE0EF76EA1
:10513000000EF86E02D8AAEFA8F00500FA6E09007A
:10514000F550FD6E0900F550FE6E0900F550FF6E3A
:10515000FA501200010135513611D8A4B2EFA8F06F
:10516000B4EFA8F032EFA8F08E0EF66EFE0EF76EDA
:10517000000EF86E02D8CBEFA8F00500FA6E090019
:10518000F550FD6E0900F550FE6E0900F550FF6EFA
:10519000FA50FF0E12008E0EF66EFE0EF76E000E27
:1051A000F86E02D8E2EFA8F00500FA6E0900F5509B
:1051B000FD6E0900F550FE6E0900F550FF6EFA50C5
:1051C000FF0E120001010251031104110511D8B4A0
:1051D000ECEFA8F0EEEFA8F0F6EFA8F020EE0CF060
:1051E0002250D9262350DA22030EDF6E020E366FCC
:1051F000000E356FDAEFA7F03D51D8A402EFA9F009
:1052000004EFA9F00FEFA9F0000E0C6E000E0D6E6A
:10521000000E0E6E000E0F6E050EBBECA0F0BA8AEB
:105220008E0EF66EFE0EF76E000EF86E02D827EFA9
:10523000A9F00500FA6E0900F550FD6E0900F55061
:10524000FE6E0900F550FF6EFA50FF0E120020EEC0
:105250000CF02250D9262350DA22000EDF6E010E08
:105260000101D66F68EFA7F020EE0CF02250D9268E
:105270002350DA22FF0EDF6E000E0C6E000E0D6E54
:10528000000E0E6E000E0F6E050EBBECA0F0BA8A7B
:105290008E0EF66EFE0EF76E000EF86E02D85FEF01
:1052A000A9F00500FA6E0900F550FD6E0900F550F1
:1052B000FE6E0900F550FF6EFA50FF0E1200010E4F
:1052C0000101D66FFF0E90EFA9F020EE0CF02250F6
:1052D000D9262350DA22DF50246E256A2550000A91
:1052E000D8B475EFA9F047EFA9F02450000AD8B45C
:1052F00068EFA7F0010AD8B46BEFA7F0030AD8B49F
:1053000049EFA8F0010AD8B4F0EFA7F0FD0AD8B42D
:1053100034EFA9F0010AD8B447EFA9F047EFA9F09C
:105320001200600047F2D9FF60004BF2DAFF6F0015
:1053300078FFADF06F0074FFAEF00001965107E109
:10534000200E955DD8B0A7EFA9F0A9EFA9F0C0EFA6
:10535000A9F01F0E9315976F000E9415986F000E0D
:105360009515996F000E96159A6F9751981199118E
:105370009A11D8B4BEEFA9F0C0EFA9F0C3EFA9F01D
:10538000020E81EFABF020EE0EF09151D926925132
:10539000DA2260004FF2DEFF600053F2DEFF6000B1
:1053A00057F2DEFF60005BF2DEFF20EE06F0915167
:1053B000D9269251DA226F0078FFA9F06F0078FFAA
:1053C000AAF06F0078FFABF06F0078FFACF0A95146
:1053D000AA11AB11AC11D8A4F0EFA9F0F2EFA9F02B
:1053E00012EFAAF06000B7F2D9FF6000BBF2DAFF5B
:1053F000020EDF64FEEFA9F000EFAAF012EFAAF0B0
:1054000020EE27F0AD51D926AE51DA226F0078FF99
:10541000A9F06F0078FFAAF06F0078FFABF06F0083
:1054200078FFACF0A951AA11AB11AC11D8A41BEFB5
:10543000AAF01DEFAAF06DEFAAF020EE07F0AD5133
:10544000D926AE51DA226F0078FF97F06F0074FF13
:1054500098F09751996F98519A6F9B6B9C6B93C082
:105460009DF094C09EF095C09FF096C0A0F0060EEF
:105470003FEFAAF0D890A0339F339E339D33E82EA0
:105480003AEFAAF099519D5D9A519E599B519F59AF
:105490009C51A059D8A04FEFAAF051EFAAF053EFBA
:1054A000AAF0C0EFA9F020EE27F0AD51D926AE51F9
:1054B000DA2210EE16F09151E1269251E2226F00AD
:1054C0007BFFE6FF6F007BFFE6FF6F007BFFE6FFE1
:1054D0006F007BFFE6FF16EFABF020EE09F0AD5159
:1054E000D926AE51DA226F0078FF97F06F0074FF73
:1054F00098F09751996F98519A6F9B6B9C6B090E1E
:10550000D89099379A379B379C37E82E80EFAAF0CE
:1055100099C0A5F09AC0A6F09BC0A7F09CC0A8F0C7
:10552000E6EFAAF091C076F092C077F0A9C078F0CB
:10553000AAC079F0ABC07AF0ACC07BF038ECA5F033
:1055400076C0A9F077C0AAF078C0ABF079C0ACF013
:105550000001A9290AE1AA2908E1AB2906E1AC2941
:10556000D8A4B5EFAAF0B7EFAAF0BAEFAAF0010EEF
:1055700081EFABF0AC51AB11AA1109E1020EA95DAC
:10558000D8A0C5EFAAF0C7EFAAF0C0EFA9F020EEAF
:1055900017F0AD51D926AE51DA22DE50A95DDE50AA
:1055A000AA59DE50AB59DE50AC59D8A0DAEFAAF0B8
:1055B000DCEFAAF0DEEFAAF0C0EFA9F0A551935FEF
:1055C000A651945BA751955BA851965BA551935D3D
:1055D000A6519459A7519559A8519659D8B0F3EFAF
:1055E000AAF0F5EFAAF092EFAAF0ADC00DF0AEC0B0
:1055F0000EF0A9C00FF0AAC010F0ABC011F0ACC003
:1056000012F0E3ECC4F0000120EE16F09151D9261F
:105610009251DA22600037F0DEFF60003BF0DEFFDF
:1056200060003FF0DEFF600043F0DEFF20EE12F08E
:105630009151D9269251DA226000A7F2DEFF600074
:10564000ABF2DEFF6000AFF2DEFF6000B3F2DEFF20
:1056500020EE16F09151D9269251DA22DE50DE105A
:10566000DE10DE10D8A437EFABF039EFABF03BEF34
:10567000ABF0C0EFA9F093C097F094C098F095C03C
:1056800099F096C09AF00A0E4BEFABF0D8909A338F
:10569000993398339733E82E46EFABF020EE16F0AF
